:03000000020B0CE4
:0C0B0C00787FE4F6D8FD7581620207A92D
:10000300C0F9A4B0999282F88090BF777C395E7969
:080013004038733EF377796D6C
:1007A900438911758DD8758BF075A888D28E7D0A0D
:0F07B9007C00E4FFFE120857E4F54DF53CC20644
:1007C800A204B0B75026A2B4B3B0B55005B20A75AA
:1007D8004D01A2B4E433FF3006047E0180027E009E
:1007E800EE5FFFA2B5E4335F6002054DA2B7B3B375
:1007F8009204E54DD394044003754D01300A051267
:1008080009C3D206A206B00A503CC206E4F54DF56B
:100818003CF526F527F55CE55C25E02428F8E6FE9E
:1008280008E6FFE55C25E02408F8A60608A6070503
:100838005CE55CB404E1E4FFFE120A1A7D0A7C0060
:0C084800E4FFFE1208EE1205A01203D817
:030854000207C8D0
:1005A0007580FF75A0FF754E09A2A1B35018AE2A41
:1005B000AF2B7C007D6412095CC3E5559FE5549E1A
:1005C000400BD2078007E4F554F555C207A208B0E6
:1005D000B05002B200A2B0B3B39208A209B0B150B9
:1005E00002B201A2B1B3B39209A283828250037511
:1005F0004E09300005C282754E01A285B35007D264
:1006000003C200754E02300105C283754E03A286F7
:10061000B35007D203C201754E04A20182005003F9
:10062000754E05A285B3B0865003754E0630070798
:10063000D203C201754E07A287B35005D203754E8F
:1006400008300052C3E5259470E5249417400D0549
:1006500057E55770020556E4F524F525E5294528A8
:100660006029E557B52910E556B5280BC200E4F519
:1006700056F557F524F525A200B0015003754E0A32
:10068000A20182005019754E0B8014E4F556F557FF
:10069000F524F5258009E4F524F525F556F557A24E
:1006A00003B0B25002C203A2868285828782A182F1
:1006B000035002C203300302C28520B202C285A2E7
:0A06C00006B35005AF4E1201FF22F1
:1001FF00EF14B40B0040030203D7900210F8282825
:10020F007302023102023B02024702025D020275D3
:10021F0002028502029C0202AC0202BF0202D1025C
:10022F000354900017E493FFA302001E900017E4FD
:10023F0093FF90001902001E900017E493FFA3E4B0
:10024F0093FD900003E493FB9000050200289000BB
:10025F0017E493FF900019E493FD900003E493FBE0
:10026F00900005020028900017E493FFA3E493FD8C
:10027F00900004020024900017E493FF900019E40B
:10028F0093FD900004E493FBF56002002C9000199D
:10029F00E493FF900003E493FBFD02002790001905
:1002AF00E493FF900003E493FBFD90000502002808
:1002BF0090001AE493FF900003E493FBFDF56002B6
:1002CF00002CC3E5299557FFE5289556FE7C037D45
:1002DF00E812096E7E007F64CFCDCFCECCCE12094F
:1002EF006E74032FF58274003EF583E493FAC3E531
:1002FF00299557FFE5289556FE7C007D6412096EFF
:10030F007E007F0ACFCDCFCECCCE12096E74032FD5
:10031F00F58274003EF583E493FBC3E5299557FFFF
:10032F00E5289556FE7C007D0A12096E74032DF5A3
:10033F008274003CF583E493F560AD02900017E4FE
:10034F0093FF02002CC3E5299557FFE5289556FE2C
:10035F007C037DE812096E7E007F64CFCDCFCECCBB
:10036F00CE12096E74032FF58274003EF583E49369
:10037F00FAC3E5299557FFE5289556FE7C007D6465
:10038F0012096E7E007F0ACFCDCFCECCCE12096E72
:10039F0074032FF58274003EF583E493FBC3E529C4
:1003AF009557FFE5289556FE7C007D0A12096E745D
:1003BF00032DF58274003CF583E493F560AD029054
:0903CF000018E493FF12002C2237
:1009C300E54D24FE601E14602B1460382403703E32
:1009D300853C4FAF4F120AD78E508F5185505885A3
:1009E3005159802AAF5BEF3395E0FE7C007D6412A2
:1009F3000A51801AAF5BEF3395E0FE7C007D0A124B
:100A03000A51800AAF5BEF3395E0FE120A54E4F516
:070A130060FBFDFF02002C57
:100A510012095CE5512FF559E5503EF558AD4FAF00
:020A610059FE3C
:100A6300C3EF94E7EE940340047E037FE7ED25E0B4
:100A73002428F8A60608A6078E508F51E4F55B22BA
:100AD700EF14600D14601024027010AC28AD29804B
:0F0AE7000AAC2AAD2B8004AC2CAD2DAF05AE04AC
:010AF60022DD
:0E001E00E493FD900003E493FBA3E493F560EC
:10002C008F5DAA0520060302014BE54F90000E934D
:10003C00753D00F53EAE58AF597C037DE812096E54
:10004C007E007F64CFCDCFCECCCE12096E74032F41
:10005C00F58274003EF583E493753F00F540AE588D
:10006C00AF597C007D6412096E7E007F0ACFCDCF24
:10007C00CECCCE12096E74032FF58274003EF5833C
:10008C00E493547F754100F542AE58AF597C007D26
:10009C000A12096E74032DF58274003CF583E49307
:1000AC00754300F544AE58AF597C277D1012096E8C
:1000BC007E037FE8CFCDCFCECCCE12096E74032F4A
:1000CC00F58274003EF583E493754500F546AE5811
:1000DC00AF597C037DE812096E7E007F64CFCDCFD3
:1000EC00CECCCE12096E74032FF58274003EF583CC
:1000FC00E493547F754700F548AE58AF597C007DAA
:10010C006412096E7E007F0ACFCDCFCECCCE120901
:10011C006E74032FF58274003EF583E493754900E9
:10012C00F54AAE58AF597C007D0A12096E74032D46
:10013C00F58274003CF583E493754B00F54C227505
:10014C003D00855D3EAF02753F008F40AF037541AA
:10015C00008F42754300856044AE54AF557C277DBB
:10016C001012096E7E037FE8CFCDCFCECCCE120914
:10017C006E74032FF58274003EF583E4937545008D
:10018C00F546AE54AF557C037DE812096E7E007FB8
:10019C0064CFCDCFCECCCE12096E74032FF5827402
:1001AC00003EF583E493547F754700F548AE2AAFC3
:1001BC002B7C007D6412096E7E007F0ACFCDCFCEE2
:1001CC00CCCE12096E74032FF58274003EF583E4D5
:1001DC0093754900F54AAE2AAF2B7C007D0A1209B3
:1001EC006E74032DF58274003CF583E493754B001B
:0301FC00F54C229D
:1003D800E4F55DF55EE55D6003020575E55EB4086C
:1003E8000040030205759003F5F828287302040DF0
:1003F80002043B0204690204970204C50204F302E2
:10040800051F02054BA202E433FFE54DB401047E4B
:100418000180027E00EE5FFFA2B582B4E4335F6024
:1004280009753D00753EFF020575C2A2C2A3C2A4AC
:10043800020575A202E433FFE54DB402047E018093
:10044800027E00EE5FFFA2B582B4E4335F600975F7
:100458003F007540FF020575D2A2C2A3C2A40205DF
:1004680075A202E433FFE54DB403047E0180027EE9
:1004780000EE5FFFA2B582B4E4335F600975410006
:100488007542FF020575C2A2D2A3C2A4020575A2D5
:1004980002E433FFE54DB404047E0180027E00EEE1
:1004A8005FFFA2B582B4E4335F6009754300754409
:1004B800FF020575D2A2D2A3C2A4020575A202E466
:1004C80033FFE54DB401047E0180027E00EE5FFF3C
:1004D800A2B582B4E4335F60097545007546FF0232
:1004E8000575C2A2C2A3D2A4020575A202E433FF15
:1004F800E54DB402047E0180027E00EE5FFFA2B5E6
:1005080082B4E4335F60087547007548FF805ED2A7
:10051800A2C2A3D2A48056A202E433FFE54DB403DD
:10052800047E0180027E00EE5FFFA2B582B4E43350
:100538005F6008754900754AFF8032C2A2D2A3D213
:10054800A4802AA202E433FFE54DB404047E0180AE
:10055800027E00EE5FFFA2B582B4E4335F600875E7
:100568004B00754CFF8006D2A2D2A3D2A4E55E252B
:10057800E0243DF8E608E6F5907F967E00120AF73B
:10058800055EE55E7002055DC39408E55D94005064
:07059800030203DD7590FF73
:01059F002239
:100AF700D3EF9400EE9400400B7DC8DDFEEF1F702E
:040B0700EF1E80EC71
:010B0B0022C7
:03001B000206CA10
:1006CA00C0E0C0F0C0D075D000C000C004C005C0F2
:1006DA0006C007758DD8758BF00525E525700205CE
:1006EA00240553E553700205520555E55570020578
:1006FA0054055AE55AB41E05B202755A000523E597
:10070A002370020522641E45226003020798300600
:10071A0077E54D64017037A2B5B0B450140527E5EA
:10072A002770020526FFAE267C007D0312096E8D16
:10073A003CA2B4B0B55051E527152770021526140E
:10074A00FFAE267C007D0312096E8D3C803AA2B56D
:10075A00B0B4E433FFC3E55994E7E5589403500471
:10076A007E0180027E00EE5F6002055BA2B4B0B536
:10077A00E433FFC3E55B6480947F40047E0180021A
:10078A007E00EE5F6002155B752200752300D007BC
:0F079A00D006D005D004D000D0D0D0F0D0E032BF
:100A8300AD07AC068CE3EDF5E453E5F843E501531C
:100A9300E71843E70143E78075E64675E6B90000CA
:0A0AA3000053E77FE4F5E6AFE2221E
:080857008E5D8F5E8C5F8D60E9
:10085F00C2AFE4255EF55E7420355DF55DE4F561AC
:10086F00F562C3E5629560E561955F506FE56225BE
:10087F00E0FFE56133FEE55E2FFFE55D3EFE120A08
:10088F0083AD62ED25E02428F8760008A607ED2554
:10089F00E02428F8C000E608E6D000F6087600E568
:1008AF006225E0FFE56133FEE55E2FCFE55D3ECFCC
:1008BF002401CF3400FE120A837E00E56225E02476
:1008CF0028F8C000E6FC08E6FDECED4FD000A604CA
:0E08DF0008F60562E562708A05618086D2AF78
:0108ED0022E8
:100A1A00AD07AC06C2AFE42DFD74203CFC7D00534B
:100A2A0004FE8CE3E4F5E453E5F843E50353E718E1
:100A3A0043E70143E78075E64675E6B900000053CF
:070A4A00E77FF5E6D2AF22C1
:100AAD00AB07AA068AE3EBF5E453E5F843E5028DBF
:100ABD00E253E71843E70143E78075E64675E6B96B
:0A0ACD0000000053E77FE4F5E62285
:0808EE008E5D8F5E8C5F8D6052
:1008F600C2AFE4255EF55E7420355DF55DE4F9E989
:10090600C39560E4955F504BE925E02408F8E608B6
:10091600E6FF756100E975F002A4255EFFE55D3529
:10092600F0FEAD61120AADE925E02408F8E6E4F62A
:10093600E975F002A4FF2401FFE435F0CF255ECF70
:10094600355DFEE925E02408F8E608E6FD120AAD65
:050956000980ACD2AFE6
:01095B002279
:10095C00EF8DF0A4A8F0CF8CF0A428CE8DF0A42EAF
:02096C00FE2269
:10096E00BC000BBE0029EF8DF084FFADF022E4CC6D
:10097E00F875F008EF2FFFEE33FEEC33FCEE9DEC36
:10098E00984005FCEE9DFE0FD5F0E9E4CEFD22ED7C
:10099E00F8F5F0EE8420D21CFEADF075F008EF2FC6
:1009AE00FFED33FD4007985006D5F0F222C398FDB7
:0509BE000FD5F0EA2254
:00000001FF
