:10028A0011222052454D4F544520434F4E54524F50
:10029A004C20001133202049522D434F44453A2027
:0602AA002D2D2D2D480052
:10034100C2A6D2A5D2A700000000E580339201C267
:03035100A7A2015F
:010354002286
:1002F50012034140FBC2A6C2A5C2A700008F800021
:0C030500000000D2A700000000C2A722E8
:1003110012034140FBD2A6C2A5C2A78F80000000F4
:0A03210000D2A700000000C2A722CE
:10024C007F0F7E001202DB7F381202F51202D77F7D
:10025C00381202F51202D77F381202F51202D77F3C
:10026C000C1202F51202D77F061202F51F7E001245
:0E027C0002DB7F011202F57F057E000202DB2D
:07036700EF4480FF0202F5E4
:10020A0075A881758801D2B2D295D2947F0A7E00F0
:10021A001202DB12024CE4FF120367E4FE74222E80
:10022A00F8E6FF60061203110E80F27F40120367A0
:10023A00E4FE74332EF8E6FF60061203110E80F214
:02024A0080FE34
:03000300020006F2
:10000600C0E0C0F0C083C082C0D075D000C000C0C0
:0D00160001C002C003C004C005C006C00741
:10002300750A00C2A87F0F12035530B205D2A80289
:10003300016320B2077F0112035580F6750800752E
:10004300090030B2077F0112035580F620B2077F03
:100053000112035580F630B2137F01120355050ACE
:10006300E50AC3941E40EFD2A80201637444250835
:10007300F8C000E6C313D000F6E50AC394084009AC
:1000830074442508F8E64480F6750A000509E50975
:10009300C3940840AD0508E508C3940440A1E547AF
:1000A300F465466005D2A8020163E546540FF5499D
:1000B300E546C4540FF54AE549D39409400474371F
:1000C300800274302549F549E54AD3940940047404
:1000D3003780027430254AF54A7F4B120367AF4AD3
:1000E3001203117F4C120367AF49120311752100EC
:1000F300E5461202B1012009012F0D013E11014D08
:1001030013014D1401431501481701341901391B1B
:1001130001251D012A1F01515100000153752101C1
:10012300802E752102802975210380247521048086
:100133001F752105801A752106801575210780100A
:10014300752108800B7521098006D2948002C29420
:10015300E52130E004C2948002D29412032BD2A88A
:10016300D007D006D005D004D003D002D001D000F0
:0B017300D0D0D082D083D0F0D0E0329A
:10032B00E4F50B7F04120355B295050BE50BC39453
:05033B006440F0D295C2
:01034000229A
:10035500AD071FED600BE4FEEEC3940D50F20E8069
:01036500F7A0
:010366002274
:0402D7007F057E0021
:1002DB00EF1FAA0670011E4A600FE4FDEDC394FAEE
:0902EB0050EE000000000D80F34C
:0102F40022E7
:0300000002017E7C
:0C017E00787FE4F6D8FD75814A0201C5C7
:10018A0002020AE493A3F8E493A34003F68001F27F
:10019A0008DFF48029E493A3F85407240CC8C33376
:1001AA00C4540F4420C8834004F456800146F6DF45
:1001BA00E4800B010204081020408090028AE47E49
:1001CA00019360BCA3FF543F30E509541FFEE4933A
:1001DA00A360010ECF54C025E060A840B8E493A301
:1001EA00FAE493A3F8E493A3C8C582C8CAC583CA2C
:1001FA00F0A3C8C582C8CAC583CADFE9DEE780BEE4
:0102B000004D
:1002B100D083D082F8E4937012740193700DA3A3DC
:1002C10093F8740193F5828883E4737402936860F0
:0602D100EFA3A3A380DFF0
:00000001FF
