:030000000200CF2C
:0C00CF00787FE4F6D8FD75810A020084F9
:1000B200C0F9A4B0999282F880908883C6A1868EF6
:1000A000AD071FED600BE4FEEEC3947D50F20E80B1
:0100B000F758
:0100B100222C
:10000300E4F5087590F07F011200A085900853086D
:10001300F0E508C4540F44F0F4F508B40105E4F521
:10002300098021E508B402057509018017E508B4C4
:100033000405750902800DE508B4080575090380F8
:100043000375091075900F7F011200A08590085366
:10005300080FE50844F0F4F508B4020585090980A2
:1000630019E508B4040474048007E508B4080874A7
:10007300082509F509800375091085090A530A0F34
:01008300225A
:0D00C2007590F0E59064F0600312000322D9
:100084007580FF7590FF7F0A1200A01200C2E50A76
:0C009400540F9000B293547FF58080EF71
:00000001FF
