:03000000020BEF01
:0C0BEF00787FE4F6D8FD758161020800F3
:0A0BFB003F065B4F666D7D077F6FBC
:100B1E008F088D098B0A120BC8AF08120AE220004B
:100B2E0002C322AF09120AE2200002C322AF0A1248
:0C0B3E000AE2200002C322120BDED322C8
:100B90008F088D09120BC8AF08120AE2200002C3A9
:100BA00022AF09120AE2200002C322120BDED32276
:020B6E008F08EE
:100B7000120BC8E50804FF120AE22000037F0022DE
:0F0B8000120B4A8F09D201120BB0120BDEAF0914
:010B8F002243
:10080000E56114602514603A14604F146064240498
:1008100070757D417F90120B907F90120B6EEF757B
:10082000F002A485F021F522805D7D427F90120BBD
:10083000907F90120B6EEF75F002A485F023F524E3
:1008400080457D437F90120B907F90120B6EEF7569
:10085000F002A485F025F526802D7D407F90120BB7
:10086000907F90120B6EEF75F002A485F027F528AB
:100870008015E52AAE297802CEC313CE13D8F9FB32
:100880007D407F90120B1E85272985282A0561E56A
:1008900061D394044003E4F561AE23AF247C277D4B
:1008A00010120A817E037FE8CFCDCFCECCCE120AC4
:1008B0008174FB2FF582740B3EF583E493FFE4FC17
:1008C000FDFE900000120AD6AE23AF247C037DE823
:1008D000120A817E007F64CFCDCFCECCCE120A81AA
:1008E00074FB2FF582740B3EF583E493FFE4FCFD6B
:1008F000FE900004120AD6AE23AF247C007D641261
:100900000A817E007F0ACFCDCFCECCCE120A817471
:10091000FB2FF582740B3EF583E4934480FFE4FCE7
:10092000FDFE900008120AD6AE23AF247C007D0A9B
:10093000120A8174FB2DF582740B3CF583E493FF5E
:10094000E4FCFDFE90000C120AD6AE21AF227C27FB
:100950007D10120A817E037FE8CFCDCFCECCCE12A0
:100960000A8174FB2FF582740B3EF583E493FFE458
:10097000FCFDFE900010120AD6AE21AF227C037D52
:10098000E8120A817E007F64CFCDCFCECCCE120A92
:100990008174FB2FF582740B3EF583E493FFE4FC36
:1009A000FDFE900014120AD6AE21AF227C007D64B9
:1009B000120A817E007F0ACFCDCFCECCCE120A8123
:1009C00074FB2FF582740B3EF583E4934480FFE4BF
:1009D000FCFDFE900018120AD6AE21AF227C007DED
:1009E0000A120A8174FB2DF582740B3CF583E493A3
:1009F000FFE4FCFDFE90001C120AD6E4FBEBFF3383
:100A000095E0FEEF7802C333CE33CED8F92400F55B
:100A10008274003EF583A3A3A3E0F580EBB4080045
:100A2000504D900A29F8282873020A41020A45020B
:100A30000A4D020A51020A59020A5D020A65020AB7
:100A400069C2A28002D2A2C2A3C2A48022C2A28092
:100A500002D2A2D2A3C2A48016C2A28002D2A2C293
:100A6000A3D2A4800AC2A28002D2A2D2A3D2A4E4BA
:100A7000FF0FBF5AFC0BEB64087082E4F58002089C
:010A80000075
:100BC800D2A100D2A00000000000C2A100000000D5
:060BD80000C2A000002293
:100BDE00C2A100D2A00000000000D2A100000000BF
:010BEE0022E4
:100AE200E4FEEFA806088002C333D8FC30E704D244
:100AF200A18002C2A100D2A00000000000C2A00E8C
:100B0200BE08DF0000D2A10000D2A000000030A188
:0B0B120004C2008002D200C2A000005C
:010B1D0022B5
:100B4A00E4FFD2A1FE00C2A00000000000D2A00073
:100B5A0000EF25E0FF30A1010F00000EBE08E6C23B
:030B6A00A00000E8
:010B6D002265
:100BB000200104C2A18002D2A1000000D2A0000046
:080BC000000000C2A0000022A9
:100A8100BC000BBE0029EF8DF084FFADF022E4CC59
:100A9100F875F008EF2FFFEE33FEEC33FCEE9DEC22
:100AA100984005FCEE9DFE0FD5F0E9E4CEFD22ED68
:100AB100F8F5F0EE8420D21CFEADF075F008EF2FB2
:100AC100FFED33FD4007985006D5F0F222C398FDA3
:050AD1000FD5F0EA2240
:0C0AD600ECF0A3EDF0A3EEF0A3EFF02293
:00000001FF
