:100000008000758130C2A7111D117F7590F0E590B9
:10001000B4F00280F611E63111314280EEC2A71130
:10002000323160900098740111519000A97402114E
:100030005122743811BA3160743811BA3160743891
:1000400011BA3160740C11BA3160740111BA3160A7
:1000500022B4010C748011BA1176748011BA800A2E
:1000600074C011BA117674C011BAE493B4000122BD
:1000700011C7A380F5227818742011C7D8FA2290EE
:10008000008774011151222020204B4559204E55E4
:100090004D424552202020002020202020202020DA
:1000A000202020202020202000204B45592D434F88
:1000B00044453A202D2D20482000F580C2A6C2A537
:1000C000D2A711D4C2A722F580D2A6C2A5D2A71169
:1000D000D4C2A7227FFADFFE22C0E0E5F024C011DF
:1000E000BAD0E011C7227590F0E59054F0F5F075A4
:1000F000900FE590540F45F0B4FF0122F5F0900108
:10010000697BFF0BEB93B5F004EB7D0822B400F3A1
:100110002275260BEB54F0C4C0E0C3940AD0E04033
:1001200002240724308526F011D9EB540FC0E0C318
:10013000940AD0E040022407243005268526F011D9
:10014000D9227EC8314FB295DEFA7D323155227FF9
:02015000DC00D1
:10015200DFFD227E037F64DFFEDEFADDF6227E19FA
:100162007F64DFFEDEFA22EDDDBD7DEBDBBB7BE7EC
:04017200D7B7770084
:00000001FF
