:030000000201EC0E
:0C01EC00787FE4F6D8FD75812002000346
:1001D9003F065B4F666D7D077F6F40FEFDFBF7EFC6
:0301E900DFBF7FF6
:10000300750A00750B01E4F5200520C3E520648023
:100013009494400BE4F520050BE50B7002050AAE42
:100023000AAF0B7C277D101201667E037FE8CFCDDC
:10003300CFCECCCE12016674D92FF58274013EF572
:1000430083E493750C00F50DAE0AAF0B7C037DE8DA
:100053001201667E007F64CFCDCFCECCCE12016677
:1000630074D92FF58274013EF583E4934480FB7ABF
:10007300008A0EF50FAE0AAF0B7C007D6412016699
:100083007E007F0ACFCDCFCECCCE12016674D92F9E
:10009300F58274013EF583E493751000F511AE0A01
:1000A300AF0B7C007D0A12016674D92DF5827401B1
:1000B3003CF583E493751200F513AE0AAF0B7C276E
:1000C3007D101201667E037FE8CFCDCFCECCCE125A
:1000D300016674D92FF58274013EF583E493751498
:1000E30000F5158A168B17AE0AAF0B7C007D6412E0
:1000F30001667E007F0ACFCDCFCECCCE12016674CF
:10010300D92FF58274013EF583E493751800F51930
:10011300AE0AAF0B7C007D0A12016674D92DF582FD
:1001230074013CF583E493751A00F51BE4F508F5B7
:1001330009C3E5099409E5089400400302000CAFE4
:1001430009EF25E0240CF808E6F580EF9001E4932D
:10015300F5907F967E001201BB0509E50970D20573
:030163000880CE43
:1001BB00D3EF9400EE940040147DC8D3ED6480948B
:0D01CB008040031D80F5EF1F70E61E80E3ED
:0101D8002204
:10016600BC000BBE0029EF8DF084FFADF022E4CC7D
:10017600F875F008EF2FFFEE33FEEC33FCEE9DEC46
:10018600984005FCEE9DFE0FD5F0E9E4CEFD22ED8C
:10019600F8F5F0EE8420D21CFEADF075F008EF2FD6
:1001A600FFED33FD4007985006D5F0F222C398FDC7
:0501B6000FD5F0EA2264
:00000001FF
