:030000000202B643
:0C02B600787FE4F6D8FD7581200202512B
:10028F003F065B4F666D7D077F6F777C395E7940E8
:05029F0038733E000869
:10025100C28AD2AFD2A8300010E51964F06003124F
:1002610002A4AF1912018B8002D2AF12000680E600
:03000300020201F5
:10020100C0E0C0D0D3E51D9400E51C64809480401B
:1002110018E51D9409E51C64809480500CE519C310
:1002210013F519309603431980051DE51D7002056C
:100231001C30B2FDD3E51D940AE51C648094804016
:100241000A751C00751D00D200C2AFD0D0D0E032BB
:10018B00EF12016501B86901D06B01E86C01B17028
:10019B0001C07201D87301E07401F07501C87A01D6
:1001AB00F87D000001FEE4F51AF51B8046751A0078
:1001BB00751B01803E751A00751B028036751A007F
:1001CB00751B03802E751A00751B048026751A008B
:1001DB00751B05801E751A00751B068016751A0097
:1001EB00751B07800E751A00751B088006751A00A3
:0601FB00751B09C2002281
:10000600851B1EAF1E7E007C277D101201107E030D
:100016007FE8CFCDCFCECCCE120110748F2FF582D4
:1000260074023EF583E493FB7A008A09F50AAF1E53
:100036007E007C037DE81201107E007F64CFCDCF69
:10004600CECCCE120110748F2FF58274023EF5834A
:10005600E493FF7E008E0BF50CE51E75F06484E5D7
:10006600F075F00A8490028F93F9750D00F50EE590
:100076001E75F00A84E5F093750F00F5108A118B52
:10008600128E138F14E98E15F516E51E75F00A8487
:10009600E5F0938E17F518E4F508E50825E0240940
:1000A600F808E6F580E508B40800504D9000B9F868
:1000B6002828730200D10200D50200DD0200E10209
:1000C60000E90200ED0200F50200F9C2A28002D2A8
:1000D600A2C2A3C2A48022C2A28002D2A2D2A3C27A
:1000E600A48016C2A28002D2A2C2A3D2A4800AC24F
:1000F600A28002D2A2D2A3D2A47F327E00120271C3
:090106000508E508C394084091C6
:01010F0022CD
:10027100D3EF9400EE940040147DC8D3ED648094D4
:0D0281008040031D80F5EF1F70E61E80E336
:01028E00224D
:1002A400E4FC7F057E00120271B2950CBCFFF3D210
:0102B40095B4
:0102B5002226
:10011000BC000BBE0029EF8DF084FFADF022E4CCD3
:10012000F875F008EF2FFFEE33FEEC33FCEE9DEC9C
:10013000984005FCEE9DFE0FD5F0E9E4CEFD22EDE2
:10014000F8F5F0EE8420D21CFEADF075F008EF2F2C
:10015000FFED33FD4007985006D5F0F222C398FD1D
:050160000FD5F0EA22BA
:10016500D083D082F8E4937012740193700DA3A329
:1001750093F8740193F5828883E47374029368603D
:06018500EFA3A3A380DF3D
:00000001FF
