:0300000002048473
:0C048400787FE4F6D8FD75813A02001E76
:0B049C003F065B4F666D7D077F6F40E1
:0F000300438911758DDCE4F58B75A88AD28E22A6
:10001E001200031204907824E6FE08E6FFE48F1F18
:10002E008E1EF51DF51C7B107A27F9F8AD1DAC1C44
:10003E00120285AC00AD01AE02AF03E47BE87A0399
:10004E00F9F8120285749C2FF58274043EF583E450
:10005E0093FFE48F0BF50AF509F5087BE87A03F9AF
:10006E00F8AF1FAE1EAD1DAC1C120285AC00AD016B
:10007E00AE02AF03E47B64FAF9F8120285749C2F8A
:10008E00F58274043EF583E493FFE48F0FF50EF5CD
:10009E000DF50C7B64FAF9F8AF1FAE1EAD1DAC1C4E
:1000AE00120285AC00AD01AE02AF03E47B0AFAF991
:1000BE00F8120285749C2FF58274043EF583E49346
:1000CE00FFE48F13F512F511F5107B0AFAF9F8AF6C
:1000DE001FAE1EAD1DAC1C120285749C2BF58274D6
:1000EE00043AF583E493FFE48F17F516F515F5142E
:1000FE00F523E52325E025E02408F81203178F8069
:10010E00E52314600E14601314601424037016C2D9
:10011E00A28002D2A2C2A3C2A4800AC2A28002D22C
:10012E00A2D2A3C2A47F967E0012043D0523E5232E
:0B013E00C3940440BDE4F580020021E2
:10043D00D3EF9400EE940040147DC8D3ED64809406
:0D044D008040031D80F5EF1F70E61E80E368
:01045A00227F
:10014900005EBCE2613FDD83C29C7E20A3FD1F41AE
:100159009DC3217FFCA2401E5F01E3BD3E6082DC9E
:10016900237D9FC1421CFEA0E1BF5D0380DE3C628E
:10017900BEE0025CDF81633D7C22C09E1D43A1FF7E
:100189004618FAA427799BC584DA3866E5BB59076E
:10019900DB856739BAE406581947A5FB7826C49A5E
:1001A900653BD987045AB8E6A7F91B45C6987A244E
:1001B900F8A6441A99C7257B3A6486D85B05E7B93E
:1001C9008CD2306EEDB3510F4E10F2AC2F7193CD2E
:1001D900114FADF3702ECC92D38D6F31B2EC0E501E
:1001E900AFF1134DCE90722C6D33D18F0C52B0EE0E
:1001F900326C8ED0530DEFB1F0AE4C1291CF2D73FE
:10020900CA947628ABF517490856B4EA6937D58BED
:100219005709EBB536688AD495CB2977F4AA4816DD
:10022900E9B7550B88D6346A2B7597C94A14F6A8CD
:10023900742AC896154BA9F7B6E80A54D7896B35BD
:0704A700AE071FEE70FA2200
:1003AC00D2B700C2B77F501204A700D2B77F0E128B
:1003BC0004A700000020B704D2008002C2007F1402
:0803CC001204A70000D2B722C1
:050383001203AC7FCC69
:02038800AD07BF
:10038A00E47838F6C2B700ED1392B77F031204A7D8
:10039A000000D2B7EDC313FD783806E6C3940840CF
:0103AA00E36F
:0103AB00222F
:10035800E4783AF618F6C2B7783AE6C313F6D2B795
:1003680030B704E64480F67F021204A70078390605
:0A037800E6C3940840E0783AE6FF7F
:010382002258
:02045B00AD07EB
:10045D00E47838F67838E6C39D500E120358A8227A
:09046D00A607052278380680EB91
:010476002263
:1003FB00E47839F618F67838E6FEC39F5010742768
:10040B002EF908E66790014993F6180680E87839CB
:02041B00E6FFFA
:01041D0022BC
:100323007F0912045B7F091203FBEF70277828E62D
:10033300FE18E67C0024007825F6EC3E18F67924B6
:10034300E7C4F854F0C868F709E7C4540F48F77FC7
:05035300011204A722C5
:1003D4001203837F4E1203887F191203887F1A1237
:1003E40003887F7F1203881203837F4812038812D5
:0703F40003837FB8020388B8
:0D0477001203AC7F331203887F0802045B80
:10041E007522301204771203D41203837F44120321
:0F042E00881203837FBE120388752227020323DF
:0C049000E521B40106E4F52112041E224F
:03001B00020012CE
:09001200758DFE758B330521325A
:1002490075F008758200EF2FFFEE33FECD33CDCC6C
:1002590033CCC58233C5829BED9AEC99E5829840EF
:100269000CF582EE9BFEED9AFDEC99FC0FD5F0D6CC
:10027900E4CEFBE4CDFAE4CCF9A88222B800C1B9F6
:100289000059BA002DEC8BF084CFCECDFCE5F0CB34
:10029900F97818EF2FFFEE33FEED33FDEC33FCEB6D
:1002A90033FB10D703994004EB99FB0FD8E5E4F928
:1002B900FA227818EF2FFFEE33FEED33FDEC33FC15
:1002C900C933C910D7059BE99A4007EC9BFCE99A09
:1002D900F90FD8E0E4C9FAE4CCFB2275F010EF2F4E
:1002E900FFEE33FEED33FDCC33CCC833C810D7074E
:1002F9009BEC9AE899400AED9BFDEC9AFCE899F889
:0E0309000FD5F0DAE4CDFBE4CCFAE4C8F9221B
:0C031700E6FC08E6FD08E6FE08E6FF2212
:00000001FF
