:030000000203BF39
:0C03BF00787FE4F6D8FD75814602040644
:0606FF0001450001460068
:1008EE00EF1FAA0670011E4A600FE4FDEDC394FAD5
:0908FE0050EE000000000D80F333
:0109070022CD
:0A09C500EF1F70011E144E70F722A0
:10094B00AD071FED600BE4FEEEC3940D50F20E806D
:01095B00F7A4
:01095C002278
:0B09AF001209CF12079812044B80FBC6
:10044B00E54524BA605B24E8606C2457B416005071
:10045B006E90046A75F003A4C58325F0C5837302FF
:10046B0004AF0204C40204CA0204CA0204CA02048E
:10047B00BB0204B50204CA0204CA0204CA0204CABB
:10048B000204CA0204CA0204CA0204CA0204B80261
:10049B0004CA0204BE0204B20204CA0204CA020461
:1004AB00C70205C802079802096F02097F02095D9E
:1004BB0002061B0208B60208480208941207F32230
:030003000202FBFB
:1002FB00C0E0C0F0C083C082C0D075D000C000C0C9
:0D030B0001C002C003C004C005C006C00749
:10031800751F00C2A87F0512094B30B204D2A8800D
:100328007B20B2077F0112094B80F6751D00751EF0
:100338000030B2077F0112094B80F620B2077F0117
:1003480012094B80F630B2127F0112094B051FE5E6
:100358001FC3941E40EFD2A880427408251DF8C020
:1003680000E6C313D000F6E51FC3940840097408DB
:10037800251DF8E64480F6751F00051EE51EC3948A
:100388000840AE051DE51DC3940440A2E50BF465C5
:0C0398000A6004D2A88005D2A8850A459E
:1003A400D007D006D005D004D003D002D001D000AD
:0B03B400D0D0D082D083D0F0D0E03257
:0909CF0043A881438801D2B22241
:0A09BA007FFFE545FEBE4502E4FFA5
:0109C4002210
:1008B600D2A01209BAEF6013E545FFBF4604C2A0F5
:0C08C6008004D2A0AF4512000680E7229B
:10054B002052454E2057454E204C4F4E47202020E1
:10055B00002057454E44553A202020202E20204382
:10056B002000204453313842323020204552523043
:10057B005220002020504C454153452043484543D1
:10058B004B2020002052454E2057454E204C4F4EBD
:10059B00472020200020495220434F44453A202D2C
:1005AB002D48200057656C636F6D6520546F204894
:0D05BB0065726521000C12120C000000009A
:0707050005160000000000D2
:10093700C2A6D2A5D2A700000000E580339201C26B
:03094700A7A20163
:01094A00228A
:1008D20012093740FBC2A6C2A5C2A700008F800042
:0C08E200000000D2A700000000C2A72206
:1009080012093740FBD2A6C2A5C2A78F80000000FB
:0A09180000D2A700000000C2A722D1
:1005C8007F0F7E001208EE7F011208D27F381208D2
:1005D800D27F057E001208EE7F381208D27F057E92
:1005E800001208EE7F381208D27F057E001208EE4E
:1005F8007F0C1208D27F057E001208EE7F061208D3
:10060800D21F7E001208EE7F011208D27F057E00FD
:030618000208EEE7
:0709D800EF4480FF0208D28A
:100922007F401208D2E4FEEE9005C093FF12090840
:040932000EBE08F3FA
:01093600229E
:10066D00EB6016EF75F00A842430F517EF75F00A7C
:10067D0084E5F02430F5168029EFC4540FF517D317
:10068D00940940047437800274302517F517EF5420
:10069D000FF516D394094004743780027430251673
:1006AD00F516EDFF1209D8AF17120908AF1602099A
:0106BD000834
:1006BE001205C8E4FF1209D8E4FEEE90054B93FF35
:1006CE0060061209080E80F27F401209D8E4FEEE91
:1006DE0090055C93FF60061209080E80F212092243
:1006EE007F057E001208EE7F4D1209D8E4FF020945
:0106FE0008F3
:10076A001205C8E4FF1209D8E4FEEE90058F93FF44
:10077A0060061209080E80F27F401209D8E4FEEEE4
:0D078A009005A093FF60061209080E80F292
:01079700223F
:100798001205C8E4FF1209D8E4FEEE90058F93FF16
:1007A80060061209080E80F27F401209D8E4FEEEB6
:0D07B8009005AF93FF60061209080E80F255
:0107C5002211
:1008480012076A1209BAEF601DE5466545600EE4B5
:10085800FB7D4AAF4512066D85454680E67F0A7ED8
:07086800001208EE80DD2202
:10095D00C2A0B2A07F2C7E011208EE1209BAEF7070
:02096D00F12275
:10096F00C2A07F2C7E011208EE1209BAEF70F1229D
:10097F00D2A07F2C7E011208EE1209BAEF70F1227D
:10061B00751CFE751CFEE4F51B851CA07F647E001B
:10062B001208EEE51C25E0F51C431C01E51C647F5C
:10063B006009051BE51BC3940840DEE4F51B851C14
:10064B00A07F647E001208EEE51CA2E713F51C43A5
:10065B001C80051BE51BC3940840E31209BAEF701D
:01066B00B2DC
:01066C00226B
:10098F003F065B4F666D7D077F6F777C395E7971B0
:10070C002020210000003F0000000000000000003D
:10071C0000000000000000000000000000000000CD
:03072C00000000CA
:10000600E48F44F543F542F5417B107A27F9F8AEC3
:1000160043AD42AC4112025DAC00AD01AE02AF038E
:10002600E47BE87A03F9F812025D748F2FF5827487
:10003600093EF583E493FFE48F24F523F522F521A9
:100046007BE87A03F9F8AF44AE43AD42AC41120205
:100056005DAC00AD01AE02AF03E47B64FAF9F812C1
:10006600025D748F2FF58274093EF583E493FFE4F5
:100076008F28F527F526F5257B64FAF9F8AF44AE07
:1000860043AD42AC4112025DAC00AD01AE02AF031E
:10009600E47B0AFAF9F812025D748F2FF58274096F
:1000A6003EF583E493FFE48F2CF52BF52AF5297BA7
:1000B6000AFAF9F8AF44AE43AD42AC4112025D74A0
:1000C6008F2BF58274093AF583E493FFE48F30F5BC
:1000D6002FF52EF52D7B107A27F9F8AF44AE43ADF8
:1000E60042AC4112025DAC00AD01AE02AF03E47B4F
:1000F600E87A03F9F812025D748F2FF58274093ECF
:10010600F583E493FFE48F34F533F532F5317BE87C
:100116007A03F9F8AF44AE43AD42AC4112025DAC8E
:1001260000AD01AE02AF03E47B64FAF9F812025D9A
:10013600748F2FF58274093EF583E493FFE48F38BC
:10014600F537F536F5357B64FAF9F8AF44AE43ADCD
:1001560042AC4112025DAC00AD01AE02AF03E47BDE
:100166000AFAF9F812025D748F2FF58274093EF5CA
:1001760083E493FFE48F3CF53BF53AF5397B0AFAC5
:10018600F9F8AF44AE43AD42AC4112025D748F2B19
:10019600F58274093AF583E493FFE48F40F53FF561
:1001A6003EF53DF51BE51B25E025E02421F812026E
:1001B600EF8F90E51BB40800504D9001C7F8282832
:1001C600730201DF0201E30201EB0201EF0201F714
:1001D6000201FB020203020207C2A28002D2A2C2ED
:1001E600A3C2A48022C2A28002D2A2D2A3C2A480A9
:1001F60016C2A28002D2A2C2A3D2A4800AC2A28040
:1002060002D2A2D2A3D2A47F647E001209C5051B26
:0A021600E51BC39408408EE4F59048
:0102200022BB
:10099F0000010102030304040506060708080909FC
:0B072F0002140000050F000000000095
:10073B00D2B77F087E001209C5C2B77F5A7E00125E
:10074B0009C5D2B77F087E001209C5A2B792007FF8
:0F075B00647E001209C5D2B7A200E4FE33FF226C
:1007C600E4F51BF51C751B08C2B7E51CC313F51C25
:1007D600D2B730B703431C807F047E001209C515CB
:0C07E6001BE51BD3940050E0AF1C7E000C
:0107F20022E4
:020820008F1B2C
:10082200E4F51C751C08C2B7E51B1392B77F057E61
:10083200001209C5D2B7E51BC313F51B151CE51C35
:05084200D3940050E119
:01084700228E
:10086F0012073B7FCC1208207F4412082012073B4F
:10087F007FCC1208207FBE1208201207C68F1412D9
:05088F0007C68F1522D1
:1004CB00E514540FF51390099F932430F50FE515A0
:1004DB00540FC454F0FFE51454F0FEC4540F4FF501
:1004EB001375F064842430F512E51375F06484857C
:1004FB00F010E51075F00A842430F511E51075F055
:10050B000A84E5F02430F510E512B4300B75122097
:10051B00E511B430037511207F481209D8AF1212C0
:10052B0009087F491209D8AF111209087F4A12092D
:10053B00D8AF101209087F4C1209D8AF0F02090867
:100894001206BE12086F1204CB1209BAEF600330BD
:1008A40000F112073B1207F31209BAEF60032000AC
:0208B400F1222F
:1007F300751B27751C10D3E51C9400E51B94004062
:10080300191209BAEF6013E51C151C7002151B7F42
:0C081300147E001208EEB29580DCD29535
:01081F0022B6
:1003CB000209AFE493A3F8E493A34003F68001F290
:1003DB0008DFF48029E493A3F85407240CC8C33333
:1003EB00C4540F4420C8834004F456800146F6DF02
:1003FB00E4800B01020408102040809006FFE47E8D
:10040B00019360BCA3FF543F30E509541FFEE493F6
:10041B00A360010ECF54C025E060A840B8E493A3BD
:10042B00FAE493A3F8E493A3C8C582C8CAC583CAE8
:10043B00F0A3C8C582C8CAC583CADFE9DEE780BEA0
:01073A0000BE
:1002210075F008758200EF2FFFEE33FECD33CDCC94
:1002310033CCC58233C5829BED9AEC99E582984017
:100241000CF582EE9BFEED9AFDEC99FC0FD5F0D6F4
:10025100E4CEFBE4CDFAE4CCF9A88222B800C1B91E
:100261000059BA002DEC8BF084CFCECDFCE5F0CB5C
:10027100F97818EF2FFFEE33FEED33FDEC33FCEB95
:1002810033FB10D703994004EB99FB0FD8E5E4F950
:10029100FA227818EF2FFFEE33FEED33FDEC33FC3D
:1002A100C933C910D7059BE99A4007EC9BFCE99A31
:1002B100F90FD8E0E4C9FAE4CCFB2275F010EF2F76
:1002C100FFEE33FEED33FDCC33CCC833C810D70776
:1002D1009BEC9AE899400AED9BFDEC9AFCE899F8B1
:0E02E1000FD5F0DAE4CDFBE4CCFAE4C8F92244
:0C02EF00E6FC08E6FD08E6FE08E6FF223B
:00000001FF
