:03000000020144B6
:0C014400787FE4F6D8FD75814602018B3F
:0C04C300446174653A0054696D653A00AC
:0604CF00012900012300D9
:10035500120410120449C200E4FF12045A7BFF7A0A
:100365000479C3120424D200E4FF12045A7BFF7AF5
:100375000479C91204247529061200B67B007A0097
:10038500792A1200037B007A00792A1201D07B00BA
:100395007A00792A120259C2007F0612045A7B009C
:1003A5007A007931120424D2007F0612045A7B00A8
:0C03B5007A00793A1204241204B680BDCC
:1000B600A292B3E433552560020529A292B3B3E4B4
:1000C60033F525A293B3E433552660020524A293A3
:1000D600B3B3E433F526A294B3E43355276002158F
:1000E60024A294B3B3E433F527E529B40703E4F572
:1000F60029E52914601914601F14602514602B1457
:10010600603124057037E524543FFD7F80802BE560
:1001160024543FFD7F828022E524541FFD7F848086
:1001260019E524540FFD7F868010E524540FFD7FCA
:0E013600888007E524547FFD7F8C1203C122D0
:0C04B6007FC97E207D0EDDFEDEFADFF641
:0104C2002217
:0F046B00EF7F08C2B6A2E092B4D2B6C313DFF49B
:01047A00225F
:0F047B007F08C2B6C313A2B492E7D2B6DFF4FF74
:01048A00224F
:1003E600AE05C2B5C2B6D2B512046BAF0612046B27
:0503F600D2B6C2B522E1
:1003FB00C2B5C2B6D2B5EF4401FF12046B12047B37
:04040B00D2B6C2B5EE
:01040F0022CA
:0F048B003000047D808002E4FD7F8E1203E622A4
:1003C100AC05AB07C20012048BAF03EC75F00A84D5
:1003D100C454F0FEEC75F00A84E5F04EFD1203E61C
:0503E100D20002048BB4
:100003007F801203FBEF5470C4540F75F00AA4FEF3
:10001300EF540F2E1203217F821203FBEF5470C49F
:10002300540F75F00AA4FEEF540F2E900001120333
:10003300337F841203FBEF5470C4540F75F00AA48A
:10004300FEEF540F2E9000021203337F861203FB40
:10005300EF5470C4540F75F00AA4FEEF540F2E90A2
:1000630000041203337F8A1203FBEF5470C4540F4E
:1000730075F00AA4FEEF540F2E9000031203337F92
:10008300881203FBEF5470C4540F75F00AA4FEEFFB
:10009300540F2E9000051203337F8C1203FBEF5491
:1000A30070C4540F75F00AA4FEEF540F2E9000068F
:0300B30002033312
:1001D0009000061202F475F00A8424309000071291
:1001E00003339000061202F475F00A84E5F024301F
:1001F000900008120333900009742D12033390000D
:10020000051202F475F00A84243090000A120333B8
:100210009000051202F475F00A84E5F02430900095
:100220000B12033390000C742D1203339000041250
:1002300002F475F00A84243090000D12033390000C
:10024000041202F475F00A84E5F0243090000E12D6
:09025000033390000FE4020333B4
:100259009000021202F475F00A8424309000101202
:1002690003339000021202F475F00A84E5F0243099
:10027900900011120333900012743A120333900064
:10028900011202F475F00A8424309000131203332A
:100299009000011202F475F00A84E5F02430900010
:1002A90014120333900015743A1203331202DBFF60
:1002B90075F00A842430900016120333EF75F00AA2
:1002C90084E5F02430900017120333900018E402FB
:0202D9000333ED
:100449007F801203FBEF30E707E4FD7F801203C1D1
:010459002280
:10043700C2A7C2A6D2A57580FFD2A7002087F1C2A6
:02044700A722EA
:0E049A00120437C2A6C2A5D2A78F80C2A72225
:0E04A800120437D2A6C2A5D2A78F80C2A72207
:10045A00AE07EE30000444C080024480FF12049AC2
:01046A00226F
:100424001202DBFF600C1204A8740129F9E43AFA01
:0304340080EE2235
:100410007F3812049A7F0612049A7F0C12049A7F86
:040420000102049A37
:10015000020355E493A3F8E493A34003F68001F26D
:1001600008DFF48029E493A3F85407240CC8C333B0
:10017000C4540F4420C8834004F456800146F6DF7F
:10018000E4800B01020408102040809004CFE47E3C
:10019000019360BCA3FF543F30E509541FFEE49374
:1001A000A360010ECF54C025E060A840B8E493A33B
:1001B000FAE493A3F8E493A3C8C582C8CAC583CA66
:1001C000F0A3C8C582C8CAC583CADFE9DEE780BE1E
:0104D5000026
:1002DB00BB010689828A83E0225002E722BBFE0221
:0902EB00E32289828A83E4932254
:1002F400BB010CE58229F582E5833AF583E02250BF
:1003040006E92582F8E622BBFE06E92582F8E22208
:0D031400E58229F582E5833AF583E4932222
:10032100BB010689828A83F0225002F722BBFE01BB
:02033100F322B5
:10033300F8BB010DE58229F582E5833AF583E8F000
:10034300225006E92582C8F622BBFE05E92582C8AC
:02035300F22294
:00000001FF
