:030000000200D625
:0C00D600787FE4F6D8FD7581200200035D
:1000930077656C636F6D6521007777772E505245D6
:0900A3004348494E2E636F6D00C5
:1000AC00AD071FED600FE4FEEEC394FA50F20000B2
:0500BC0000000E80F3BE
:0100C100221C
:1000C200C2A6D2A5D2A700000000E580339200C2EA
:0300D200A7A200E2
:0100D5002208
:10005D001200C240FBC2A6C2A5C2A700008F80003D
:0C006D00000000D2A700000000C2A72283
:0700E200EF4480FF02005D06
:100079001200C240FBD2A6C2A5C2A78F8000000011
:0A00890000D2A700000000C2A72269
:100037007F3812005D7F011200AC7F0C12005D7FDC
:10004700011200AC7F0612005D7F011200AC7F0138
:0600570012005D0200AC86
:100003001200377F0A1200AC7F041200E2E4FEEE16
:1000130090009393FF60061200790E80F27F4112E5
:1000230000E2E4FEEE90009C93FF60061200790E5E
:0400330080F280FED9
:00000001FF
