:030000000202F108
:0C02F100787FE4F6D8FD7581290202FD3B
:1002E1003F065B4F666D7D077F6F777C395E797165
:0A02FD00120307AF2212000680F979
:1002B100D3EF9400EE940040147DC8D3ED64809494
:0D02C1008040031D80F5EF1F70E61E80E3F6
:0102CE00220D
:10000600E48F1FF51EF51DF51C7B107A27F9F8AE57
:100016001EAD1DAC1C120158AC00AD01AE02AF0303
:10002600E47BE87A03F9F812015874E12FF582743B
:10003600023EF583E493FFE48F0BF50AF509F50814
:100046007BE87A03F9F8AF1FAE1EAD1DAC1C12019A
:1000560058AC00AD01AE02AF03E47B64FAF9F812C6
:10006600015874E12FF58274023EF583E493FFE4B0
:100076008F0FF50EF50DF50C7B64FAF9F8AF1FAE90
:100086001EAD1DAC1C120158AC00AD01AE02AF0393
:10009600E47B0AFAF9F812015874E12FF58274022A
:1000A6003EF583E493FFE48F13F512F511F5107B0B
:1000B6000AFAF9F8AF1FAE1EAD1DAC1C120158743A
:1000C600E12BF58274023AF583E493FFE48F17F58A
:1000D60016F515F514FBEB25E025E02408F81201CA
:1000E600EA8F80EB14600E146013146014240370FE
:1000F60016C2A28002D2A2C2A3C2A4800AC2A28051
:1001060002D2A2D2A3C2A47F647E001202B10BBBAC
:0501160004C4E4F580C3
:01011B0022C1
:0903070043A881438801D2B2220F
:030003000201F601
:1001F600C0E0C0F0C083C082C0D075D000C000C0CF
:0D02060001C002C003C004C005C006C0074F
:10021300752900C2A87F051202CF30B204D2A8808C
:100223007220B2077F011202CF80F675270075286E
:100233000030B2077F011202CF80F620B2077F01A0
:100243001202CF80F630B2127F011202CF0529E5E8
:1002530029C3941E40EFD2A8803974202527F8C003
:1002630000E6C313D000F6E529C3940840097420BF
:100273002527F8E64480F67529000528E528C39468
:100283000840AE0527E527C3940440A2E523F4659F
:0302930022D2A8CC
:10029600D007D006D005D004D003D002D001D000BC
:0B02A600D0D0D082D083D0F0D0E03266
:1002CF00AD071FED600BE4FEEEC3940D50F20E80F0
:0102DF00F727
:0102E00022FB
:10011C0075F008758200EF2FFFEE33FECD33CDCC9A
:10012C0033CCC58233C5829BED9AEC99E58298401D
:10013C000CF582EE9BFEED9AFDEC99FC0FD5F0D6FA
:10014C00E4CEFBE4CDFAE4CCF9A88222B800C1B924
:10015C000059BA002DEC8BF084CFCECDFCE5F0CB62
:10016C00F97818EF2FFFEE33FEED33FDEC33FCEB9B
:10017C0033FB10D703994004EB99FB0FD8E5E4F956
:10018C00FA227818EF2FFFEE33FEED33FDEC33FC43
:10019C00C933C910D7059BE99A4007EC9BFCE99A37
:1001AC00F90FD8E0E4C9FAE4CCFB2275F010EF2F7C
:1001BC00FFEE33FEED33FDCC33CCC833C810D7077C
:1001CC009BEC9AE899400AED9BFDEC9AFCE899F8B7
:0E01DC000FD5F0DAE4CDFBE4CCFAE4C8F9224A
:0C01EA00E6FC08E6FD08E6FE08E6FF2241
:00000001FF
