:1002B500202057696C6C69616D205465737420202A
:1002C50000434C4F434B2100303132333435363700
:0402D50038393A205A
:02031700C10023
:06000300E4FF0FBFFFFC4B
:0100090022D4
:0E0309008F80C2A6C2A5C2A7120003D2A722EF
:0302F800EF93FF82
:0E02FB008F80D2A6C2A5C2A7120003D2A722EE
:10014E007F011203097F381203097F0C1203097F06
:10015E00061203097FC9120309E4FEEE9002C6934C
:10016E00FF1202FB0EBE06F37F80120309E4FEEEC1
:10017E009002B593FF1202FB0EBE10F37FC0020376
:01018E000967
:10028100E51475F00A8485F00CE51475F00A84F51F
:100291000DE50B75F00A8485F00FE50B75F00A8406
:1002A100F510E50A75F00A8485F012E50A75F00A81
:0402B10084F513229B
:10018F00120309AF13EF9002CD93FF1202FBAF12D0
:10019F001202F8AF111202F8AF10EF93FF1202FB29
:1001AF00AF0FEF93FF1202FBAF0EEF93FF1202FBA5
:1001BF00AF0DEF93FF1202FBAF0CEF93FF0202FBA9
:1001CF007590F0E5B054F064F06032120003E590E2
:1001DF0054F064F060277FFEEF30E421F590E5B036
:1001EF0054F064F0600FE59054F0440FFEEFF4FF0D
:0F01FF00EEF42FFF22EF25E04401FF80DB7F00AD
:01020E0022CD
:10000E001201CFAE07EE24E8605C24F0604224E0DB
:10001E00602D24C060030200B12000137508C1C218
:10002E00AF7FC11203097F0F120309D20080747FC4
:10003E00C01203097F0C120309C200D2AF806430D4
:10004E000061E508B4C1057508C7805274FD800FC4
:10005E00300050E508B4C7057508C180417403250A
:10006E0008F508FF803A30003AE508B4C102050AE7
:10007E00E50AB41803E4F50AE508B4C402050BE575
:10008E000BB43C03E4F50BE508B4C7020514E51404
:10009E00B43C03E4F5141202817FC012018FAF0845
:1000AE00120309EE600DE5B054F064F06005759032
:0300BE00F080F3DC
:0100C100221C
:1002D900758901758C4CE4F58AD2AFD2A9D28CF517
:0F02E90009750A0CF50BF514750E0A75110A222A
:10020F001202D912014E12000E2000FAE509C39412
:10021F000A5008750E0A75110A8006750E0B7511B6
:10022F000BE509700A1202817FC012018F80D7E59A
:0B023F0009B40AD27FC012018F80CBEF
:03000B0002024AA4
:10024A00C0E0C0D0758C4C758A050509E509B4145F
:10025A00210514750900E514B43C17050B75140043
:10026A00E50BB43C0D050A750B00E50AB4180375D5
:07027A000A00D0D0D0E032F1
:030000000200C239
:0C00C200787FE4F6D8FD7581200201096A
:1000CE0002020FE493A3F8E493A34003F68001F237
:1000DE0008DFF48029E493A3F85407240CC8C33333
:1000EE00C4540F4420C8834004F456800146F6DF02
:1000FE00E4800B0102040810204080900317E47E78
:10010E00019360BCA3FF543F30E509541FFEE493F6
:10011E00A360010ECF54C025E060A840B8E493A3BD
:10012E00FAE493A3F8E493A3C8C582C8CAC583CAE8
:10013E00F0A3C8C582C8CAC583CADFE9DEE780BEA0
:0103190000E3
:00000001FF
