:03000000020030CB
:03000B0002004AA6
:10003000753000753100753200758901758CF07569
:100040008A60D28CD2A9D2AF80FE758CF0758A609E
:10005000900085E53193F5A090008DE53275F008AC
:10006000A4253193F5800531E531B40803753100DD
:100070000530E530B4FA0D7530000532E532B40ACA
:100080000375320032FEFDFBF7EFDFBF7F00003E5D
:100090004141413E0000000000217F010000002797
:1000A0004545453900000022494949360000000C09
:1000B00014247F04000000725151514E0000003E94
:1000C000494949260000004040404F70000000367A
:0D00D00049494936000000324949493E00C7
:00000001FF
