:100391002020202043594D4F4D45544552202020C7
:1003A10000465245513A2020202020202020487A22
:0203B10020002A
:10001E00C100010900010E00010F00010800040AD1
:0C002E00000000000610000000000000B0
:06041100C2A5D2A78F80F6
:050417000000000022BE
:1003D200EF1FAA0670011E4A600BE4FDEDC3947282
:0503E20050EE0D80F754
:0103E70022F3
:1003FE00C2A6D2A5D2A7120417E580339201C2A7D6
:02040E00A20149
:0104100022C9
:0903E8007F057E001203D27F386C
:0D03F1001203FE40FBC2A6120411C2A72297
:0D000E001203FE40FBD2A6120411C2A7226D
:10035C007F0F1203EA1203E81203E87F057E0012F6
:10036C0003D27F0C1203F17F057E001203D27F06AD
:10037C001203F11F7E001203D27F011203F17F05DD
:05038C007E000203D217
:07000300EF4480FF0203F14E
:1002A600E4F51AE47B0AFAF9F8AF0DAE0CAD0BAC27
:1002B6000A1200C9EB2430FF7410251AF8A607AFFE
:1002C6000DAE0CAD0BAC0AE47B0AFAF9F81200C9C4
:1002D6008F0D8E0C8D0B8C0A051AE51AB405C4E534
:1002E6000D2430F515751A057410251AF8E6B43084
:1002F600057620D51AF27F46120003751A05E51A0F
:10030600F4600E7410251AF8E6FF12000E151A8016
:01031600EDF9
:0103170022C3
:10015B0075B0FF12035CE4FF120003E4FEEE9003A4
:10016B009193FF12000E0EBE10F37F40120003E4BA
:10017B00FEEE9003A293FF12000E0EBE10F37589D4
:10018B0051758C4CE4F58AF58DF58BD2A9D2ABD297
:10019B00AFD2BBD28CD28E300064858D0E858B0F87
:1001AB00AF08E4FCFDFE7BFF7AFFF9F812003EA8D6
:1001BB0004A905AA06AB07E50EFEE4FCFD2BFBEA42
:1001CB003EFAED39F9EC38F8E4FEEB250FFFEE3A89
:1001DB00FEED39FDEC38FCE47B6CFAF9F812003ECD
:1001EB00E47B64FAF9F81203188F198E188D178CAB
:1001FB0016E4F58DF58BC200F508D28ED28C8519DD
:0F020B000D85180C85170B85160A1202A6808820
:03000B000203B33A
:1003B300C0E0C0D0758C4C758A000509E509B414FA
:0F03C30009C28CC28E750900D200D0D0D0E032B2
:03001B0002041CC0
:03041C000508329E
:0300000002021ADF
:0C021A00787FE4F6D8FD758120020261B7
:10003E00E88FF0A4CC8BF0A42CFCE98EF0A42CFC61
:10004E008AF0EDA42CFCEA8EF0A4CDA8F08BF0A4DF
:10005E002DCC3825F0FDE98FF0A42CCD35F0FCEB3E
:10006E008EF0A4FEA9F0EB8FF0A4CFC5F02ECD3903
:0F007E00FEE43CFCEAA42DCE35F0FDE43CFC2270
:10008D0075F008758200EF2FFFEE33FECD33CDCC2A
:10009D0033CCC58233C5829BED9AEC99E5829840AD
:1000AD000CF582EE9BFEED9AFDEC99FC0FD5F0D68A
:1000BD00E4CEFBE4CDFAE4CCF9A88222B800C1B9B4
:1000CD000059BA002DEC8BF084CFCECDFCE5F0CBF2
:1000DD00F97818EF2FFFEE33FEED33FDEC33FCEB2B
:1000ED0033FB10D703994004EB99FB0FD8E5E4F9E6
:1000FD00FA227818EF2FFFEE33FEED33FDEC33FCD3
:10010D00C933C910D7059BE99A4007EC9BFCE99AC6
:10011D00F90FD8E0E4C9FAE4CCFB2275F010EF2F0B
:10012D00FFEE33FEED33FDCC33CCC833C810D7070B
:10013D009BEC9AE899400AED9BFDEC9AFCE899F846
:0E014D000FD5F0DAE4CDFBE4CCFAE4C8F922D9
:10031800C2D5E830E70FB2D5E4C39BFBE49AFAE410
:1003280099F9E498F8EC30E717B2D512034E1200A9
:10033800C9E4C39BFBE49AFAE499F9E498F88003CA
:100348001200C930D50DE4C39FFFE49EFEE49DFD75
:04035800E49CFC2203
:1002260002015BE493A3F8E493A34003F68001F292
:1002360008DFF48029E493A3F85407240CC8C333D9
:10024600C4540F4420C8834004F456800146F6DFA8
:10025600E4800B010204081020408090001EE47E1A
:10026600019360BCA3FF543F30E509541FFEE4939D
:10027600A360010ECF54C025E060A840B8E493A364
:10028600FAE493A3F8E493A3C8C582C8CAC583CA8F
:10029600F0A3C8C582C8CAC583CADFE9DEE780BE47
:01003A0000C5
:00000001FF
