:0300000002008774
:0C008700787FE4F6D8FD75810D0200932F
:10007700FEFCFDF9FBF3F7F6F6F7F3FBF9FDFCFEE3
:10005D00E4F50DE50D90007793541FF59012003BDC
:09006D00050DE50DC3940840EAFD
:010076002267
:10003B00AC08AD09ED1DAA0470011C4A6013E4FE67
:10004B00FFC3EF9496EE940050EA0FBF00010E80B1
:01005B00F0B4
:01005C002281
:1000030075080075090A750C4012005DE5091509AC
:1000130070021508E5096401450870ED12005D15CD
:100023000CE50CB401F612005D0509E50970020543
:0700330008640A450870EFA4
:01003A0022A3
:0500930012000380FBD8
:00000001FF
