:03000000020030CB
:10003000752000E520752008755000755100755237
:10004000007553001184114F11B57520080144E566
:1000500050540F90010093F560E551540F9001004A
:1000600093F561E552540F90010093F562E5535406
:100070000F90010093F56385606485616585626614
:1000800085636722E5502401F550B40A27755000B6
:10009000E5512401F551B40A1B755100E5522401C4
:1000A000F552B40A0F755200E5532401F553B40A12
:1000B0000375530022E4FD2460F88680ED90012052
:1000C00093F5A0ED11CB04D520EC227E027FFFDF5B
:0400D000FEDEFA2234
:0B0100003F065B4F666D7D077F6F4080
:08012000FFFBF7F3EFEBE7E34F
:00000001FF
