:0300000002009368
:0C009300787FE4F6D8FD75810C02006F48
:10008300FEFCFDF9FBF3F7F6F6F7F3FBF9FDFCFED7
:10000300E4F509F50AE4F508E50C6401450B700A0B
:10001300E50890008393541FF590E50C6402450BAB
:10002300700AE50890008B93541FF5907F057E00BE
:100033001200510508E508C3940840CC050AE50AF7
:0D00430070020509C3940CE509940040B853
:01005000228D
:10005100EF1FAA0670011E4A6013E4FCFDC3ED9474
:0D00610050EC940050EA0DBD00010C80F041
:01006E00226F
:10006F00750B00750C01120003750B00750C021255
:04007F00000380EC0E
:00000001FF
