:1013C800504C43B6AFD7F7B0E6B1BE2056312E30F9
:1013D80035202020003531B0E5B3CCD0F2B0E6B1ED
:0A13E800BE2056332E3238202000BC
:0415D5000208000008
:10000E00D3EF9400EE9400400B7DC8DDFEEF1F7021
:05001E00EF1E80EC2242
:0A119C007B017A0079EC7C137DC81A
:1011A6008B318A3289338C348D358535828534830B
:1011B600E49360420535E535AE347002053414F526
:1011C600828E83E493F5360535E535AE3470020537
:1011D6003414F5828E83E493F537FEE536FFAB31A2
:1011E600E533F92402F533E532FA3400F532EE8FB1
:0711F600F0120A9A80B422F6
:03000B000215805B
:10158000C0E0758CDC758A000509E5097002050864
:03159000D0E03276
:0F15C600438911758CDCE4F58A75A88AD28C22D2
:100026001215C61215E11214EC8F2585252175359A
:100036004B753600753701753800753900753A54B9
:10004600753B01753C00753D887FC07ED47D017C83
:1000560000120EF0E4F52674542526F8E4F605267B
:10006600E526B420F2E4F52675F002E526A42488F8
:10007600F582E5F03400F583E4F0A3E526F00526E5
:10008600E526B4B9E3E4F5239000A0F0A304F0E478
:100096009000B8F0A3F09000C0F0A37464F0900054
:1000A600C4E4F0A37432F0E4900150F0A3F09001A0
:1000B600F0F0A3F0A3F0A3F012119C1214EC8F251C
:1000C600852521852120A220820050347854E6F42B
:1000D600F69000BEE475F001120A59FED3E5F094DD
:1000E60005EE94004007E49000BEF0A3F0900150A6
:1000F600E07002A3E060099000B8E4F0A3740AF08F
:10010600A200B39220A221820150187855E6F4F697
:10011600900150E07002A3E060099000B8E4F0A3FB
:100126007411F0A201B39221A222820250187856CD
:10013600E6F4F6900150E07002A3E060099000B882
:10014600E4F0A3741DF0A202B39222A2238203500C
:10015600187857E6F4F6900150E07002A3E06009C3
:100166009000B8E4F0A3741EF0A203B39223A22475
:10017600820450057858E6F4F6A204B39224A22528
:10018600820550057859E6F4F6A205B3922578550E
:10019600E660307B007A0079109000C0E0FCA3E0B6
:1001A600FD121487EF601C9000BEE475F001120A80
:1001B60059FED3E5F09405EE94004007E49000BEA6
:1001C600F0A3F030000312119C30010D7B017A0080
:1001D60079EC7C137DDD1211A67B007A00791290F2
:1001E60000C4E0FCA3E0FD121487EF70030202E8EE
:1001F60030001BC39000B3E0943A9000B2E0940044
:10020600500CA3E004F070069000B2E004F0300158
:100216001BD39000B3E094009000B2E09400400C31
:10022600A3E024FFF09000B2E034FFF030021BC3DD
:100236009000B5E094099000B4E09400500CA3E05F
:1002460004F070069000B4E004F030031BD3900075
:10025600B5E094009000B4E09400400CA3E024FFC5
:10026600F09000B4E034FFF090013DE004F0700639
:1002760090013CE004F0900143E004F07006900128
:1002860042E004F07858E6601C9000B2E475F00194
:10029600120A59FED3E5F09439EE94004007E49033
:1002A60000B2F0A3F07859E6603808E670239000B3
:1002B600B475F001120A59FED3E5F09408EE9400E5
:1002C60040209000B4E4F0A37408F0785A76FF80DA
:1002D600119000B474FFF5F0120A5945F0700378D6
:1002E6005AF6E490014EF0A3F0E52230E4089001BE
:1002F6004EE4F0A304F0E52230E50990014EE4F067
:10030600A37402F0E52230E60990014EE4F0A374EE
:1003160003F0E52230E70990014EE4F0A37404F0FF
:100326007B007A00790A7D017C00121487EF600851
:10033600788006E6187001067B007A00790C7D321B
:100346007C00121487EF600B7874E6FF25E0F670E8
:100356000276019001F0E07002A3E0703FFB7A00A4
:1003660079147DC8FC121487EF6031E49001B4F073
:10037600A3F0F52675F004E526A4246EF582E5F0D3
:100386003401F583E0FEA3E0FF9001B5E02FF09085
:1003960001B4E03EF00526E526B40ED8D39001F16F
:1003A600E094009001F0E0940050030204457B00C5
:1003B6007A0079167D647C00121487EF70030204BC
:1003C60045900088E0FFA3E090019ECFF0A3EFF0F8
:1003D600E4F526E52625E0FFE433FE74662FF58274
:1003E60074013EF583E0FCA3E0FD74642FF582748E
:1003F600013EF583ECF0A3EDF00526E526B41DD30A
:1004060090008AE0FFA3E09001DACFF0A3EFF0E4DA
:10041600F526E52625E0FFE433FE74A22FF5827467
:10042600013EF583E0FCA3E0FD74A02FF582740184
:100436003EF583ECF0A3EDF00526E526B41DD37B4F
:10044600007A00790E7D0A7C00121487EF607B30FB
:10045600041BC39000A1E094649000A0E0940050B7
:100466000CA3E004F070069000A0E004F030051B39
:10047600D39000A1E094009000A0E09400400CA36B
:10048600E024FFF09000A0E034FFF030061BC3909C
:100496000091E094E8900090E09403500CA3E004EF
:1004A600F07006900090E004F030071BD3900091A6
:1004B600E09400900090E09400400CA3E024FFF04C
:1004C600900090E034FFF0120DC67874E6F52390A4
:1004D60000BAE07004A3E064017026F523F526AFA8
:1004E600267401A807088002C333D8FCFF7454257C
:1004F60026F8EF562523F5230526E526B408E080E1
:10050600129000BAE07004A3E0640270069000C383
:10051600E0F523E4F52674017E00A826088005C3CD
:1005260033CE33CED8F9FFEF5520600B9000AEE402
:10053600F0A3E526F080070526E526B408D8120EB6
:100546005FAF09AE08120B879000A2E07004A3E02B
:100556006442704E9000A2F0A3F0FB7A00792975F0
:100566003608FD7FA01211FDE4F528E52825E024D4
:100576002AF8E6FEE52825E02429F8E67C00240092
:10058600FDEC3EFCE52825E0FFE433FE74A42FF5E0
:100596008274003EF583ECF0A3EDF00528E528B45F
:1005A60004C99000A2E07004A3E064587052900061
:1005B600A2F0A3F0F528E52825E0FFE433FE74A4B5
:1005C6002FF58274003EF583A3E0FDE52825E0249F
:1005D60029F8A60574A42FF58274003EF583E0FF82
:1005E600E52825E0242AF8A6070528E528B404C648
:1005F6007B007A007929753608E4FD7FA012136224
:100606009000ACE4F0A3E521F09000C6E4F0A3E589
:1006160022F0787FE6FF08E69000B6CFF0A3EFF071
:100626009000BCE4F0A3E520F06004C2958002D2FD
:1006360095787FE6FE08E6FF7C277D10120A047E89
:10064600037FE8CFCDCFCECCCE120A04740A2FF5A5
:100656008274153EF583E493FB7875F6787FE6FEA3
:1006660008E6FF7C037DE8120A047E007F64CFCD96
:10067600CFCECCCE120A04740A2FF58274153EF53D
:1006860083E493547FFA7876F6787FE6FE08E6FFF1
:100696007C007D64120A047E007F0ACFCDCFCECCCB
:1006A600CE120A04740A2FF58274153EF583E4937C
:1006B6007877F6787FE6FE08E6FF7C007D0A120A68
:1006C60004740A2DF58274153CF583E4937878F664
:1006D60008A60308A602787FE6FA08E6FB7C007DFA
:1006E60064FFAE02120A047E007F0ACFCDCFCECCC5
:1006F600CE120A04740A2FF58274153EF583E4932C
:10070600787BF67C007D0AAF03AE02120A04740AF7
:100716002DF58274153CF583E493787CF6E4F52692
:1007260074752526F8E6F590E526B40900505E9026
:10073600073CF828287302075702075B0207610285
:10074600076702077102077502077B020781020726
:100756008BC2A28002D2A2C2A3800AC2A2D2A38066
:1007660004D2A2D2A3C2A4D2918022C2A28002D273
:10077600A2C2A3800AC2A2D2A38004D2A2D2A3D2CA
:10078600A4D2918008D2A3D2A3D2A4C2917F037E21
:100796000012000E0526E526C394094083E4F527DA
:1007A600F52674017E00A826088005C333CE33CE15
:1007B600D8F9FFEF55216007E52604F527800705E0
:1007C60026E526B408DCE52790151593FF1213F2EB
:0307D6000200C15D
:10150A003F065B4F666D7D077F6F40C0F9A4B099B7
:0B151A009282F880908883C6A1868E24
:10148700120A6FFFC3E5099FFFE50895F0FEC3EF5A
:101497009DEE9C400BE5088509F0120A9A7F012210
:0314A7007F0022A1
:1014EC00C29600D29600E4FFFEEF25E0FF30970194
:0E14FC000FD2B600C2B60EBE09EFEFF4FF220B
:1013F200E4FEEFA806088002C333D8FC30E704D22B
:10140200B48002C2B4C2B60000D2B60EBE08E3C2B5
:06141200B50000D2B52276
:0715D9000153000251000064
:0915E100D290D291D292D2932251
:100E5F009000A0E0FEA3E0FF4E7003020EEF8E4F56
:100E6F008F50E55314602614603F146058240370AC
:100E7F006F7B007A007951AD50AC4F121487EF6041
:100E8F005FC290D291D292D293755301227B007A96
:100E9F00007951AD50AC4F121487EF6043D290C21E
:100EAF0091D292D293755302227B007A007951AD81
:100EBF0050AC4F121487EF6027D290D291C292D2CA
:100ECF0093755303227B007A007951AD50AC4F12CA
:100EDF001487EF600BD290D291D292C293E4F55364
:010EEF0022E0
:10155500D2A100D2A00000000000C2A1000000003E
:0615650000C2A0000022FC
:1015A500C2A100D2A00000000000D2A100000000EE
:0115B5002213
:10132600E4FEEFA806088002C333D8FC30E704D2F7
:10133600A18002C2A100D2A00000000000C2A00E3F
:10134600BE08DF0000D2A10000D2A000000030A13C
:0C13560004C2268002D226C2A0000022A1
:10146300E4FFD2A1FE00C2A00000000000D2A00051
:1014730000EF25E0FF30A1010F00000EBE08E6C219
:04148300A0000022A3
:10152500202704C2A18002D2A1000000D2A00000A1
:08153500000000C2A00000222A
:10136200AE07121555121326202602C322AF05120C
:101372001326202602C322E4FDEDC3953650161231
:1013820009D9FF121326202602C322740129F9E487
:0A1392003AFA0D80E41215A5D322EB
:1011FD00AC07121555121326202602C322AF051275
:10120D001326202602C322121555EC04FF121326B5
:10121D00202602C322E4FDE53614FFEDC39F5016D0
:10122D00121463EF1209F2C227121525740129F960
:10123D00E43AFA0D80E1121463EF1209F2D227128B
:07124D0015251215A5D3229F
:10139C008F318D328B33121555AF31121326202617
:1013AC0002C322AF32121326202602C322AF3312FD
:0C13BC001326202602C3221215A5D322FE
:1014CC008F318D32121555AF31121326202602C3DF
:1014DC0022AF32121326202602C3221215A5D322C4
:1014AA008F31121555E53104FF1213262026037FCA
:1014BA0000221214638F32D2271215251215A5AFF6
:0214CA003222CC
:100DC600E51C14602414603814604C146066240416
:100DD600707A7D417F901214CC7F901214AAEF7521
:100DE600F002A4FF90008880437D427F901214CCCD
:100DF6007F901214AAEF75F002A4FF90008A802C4F
:100E06007D437F901214CC7F901214AAEF75F002E6
:100E1600A4FF90008C80157D407F901214CC7F90AB
:100E26001214AAEF75F002A4FF90008EE5F0F0A36D
:100E3600EFF08018900090E0FEA3E07802CEC31396
:100E4600CE13D8F9FB7D407F9012139C051CE51C40
:090E5600D394044003E4F51C22CE
:03000000020F816B
:0C0F8100787FE4F6D8FD758180020FC86F
:1009D900BB010689828A83E0225002E722BBFE021C
:0909E900E32289828A83E493224F
:1009F200BB010689828A83F0225002F722BBFE01E4
:020A0200F322DD
:100A0400BC000BBE0029EF8DF084FFADF022E4CCD6
:100A1400F875F008EF2FFFEE33FEEC33FCEE9DEC9F
:100A2400984005FCEE9DFE0FD5F0E9E4CEFD22EDE5
:100A3400F8F5F0EE8420D21CFEADF075F008EF2F2F
:100A4400FFED33FD4007985006D5F0F222C398FD20
:050A54000FD5F0EA22BD
:100A5900C5F0F8A3E028F0C5F0F8E5821582700228
:060A69001583E038F022C5
:100A6F00BB010A89828A83E0F5F0A3E02250068752
:100A7F00F009E71922BBFE07E3F5F009E319228914
:0B0A8F00828A83E493F5F07401932247
:100A9A00BB010A89828A83F0E5F0A3F0225006F7A7
:0F0AAA0009A7F01922BBFE06F3E5F009F31922A4
:1007D90000C1814001C0804101C0804100C1814008
:1007E90001C0804100C1814000C1814001C08041F8
:1007F90001C0804100C1814000C1814001C08041E8
:1008090000C1814001C0804101C0804100C18140D7
:1008190001C0804100C1814000C1814001C08041C7
:1008290000C1814001C0804101C0804100C18140B7
:1008390000C1814001C0804101C0804100C18140A7
:1008490001C0804100C1814000C1814001C0804197
:1008590001C0804100C1814000C1814001C0804187
:1008690000C1814001C0804101C0804100C1814077
:1008790000C1814001C0804101C0804100C1814067
:1008890001C0804100C1814000C1814001C0804157
:1008990000C1814001C0804101C0804100C1814047
:1008A90001C0804100C1814000C1814001C0804137
:1008B90001C0804100C1814000C1814001C0804127
:1008C90000C1814001C0804101C0804100C1814017
:1008D90000C0C101C30302C2C60607C705C5C404D7
:1008E900CC0C0DCD0FCFCE0E0ACACB0BC90908C847
:1008F900D81819D91BDBDA1A1EDEDF1FDD1D1CDC37
:1009090014D4D515D71716D6D21213D311D1D010A6
:10091900F03031F133F3F23236F6F737F53534F496
:100929003CFCFD3DFF3F3EFEFA3A3BFB39F9F83806
:1009390028E8E929EB2B2AEAEE2E2FEF2DEDEC2CF6
:10094900E42425E527E7E62622E2E323E12120E066
:10095900A06061A163A3A26266A6A767A56564A456
:100969006CACAD6DAF6F6EAEAA6A6BAB69A9A868C6
:1009790078B8B979BB7B7ABABE7E7FBF7DBDBC7CB6
:10098900B47475B577B7B67672B2B373B17170B026
:100999005090915193535292965657975595945416
:1009A9009C5C5D9D5F9F9E5E5A9A9B5B9959589886
:1009B900884849894B8B8A4A4E8E8F4F8D4D4C8C76
:1009C90044848545874746868242438341818040E6
:100EF0008F348E338D328C31AE35AF367C007D64CD
:100F0000120A04EF7805C333CE33CED8F9F53F8EFD
:100F10003EFBAA06E4F9F8AF34AE33AD32AC311281
:100F20000AF58E408F41AE3EAF3FAB07AA06E4F90B
:100F3000F8AF34AE33AD32AC31120AF5EB2405FF15
:100F4000E43AFEC3EF940AEE940040080541E541FF
:100F500070020540AF41AB07E4C39BFFE48FCA7545
:100F6000CBFF75C8307598D0F587D2AFD2ACD2CA56
:100F7000F54A853743C2B7853A4B853C47853D489E
:010F8000224E
:10156B00D3EF9400EE9400400B7DC8DDFEEF1F70AF
:05157B00EF1E80EC22D0
:0300230002109830
:10109800C0E0C0D075D000C000C005C006C0073091
:1010A8009923C299E54CC395495010054C744425C1
:1010B8004CF8E2A2D0929BF599804AC2B7754600D7
:1010C800754D00804030983DC298E599B40D1505DE
:1010D8004AE54AD39405400F7FE87E0312156B75E5
:1010E800E7608003754A00754E0274002546F8E5EE
:1010F80099F274002546F8E2A2D0309A01B3500361
:10110800754D020546D007D006D005D000D0D0D006
:02111800E032C3
:0612E6007BFE7A00794452
:1012EC008B408A4189427FFF7CFFAE051DEE602357
:1012FC00AB400542E542AA417002054114F91209BE
:10130C00D96FFB7A009007D9936CFFEB9008D993B7
:0A131C00FC80D7EFFEAD04EDFF22C8
:10153D00D2B7E4F54CE549D39401400215497844FE
:08154D00E2A2D0929BF5992265
:100CF700E4F53B7802E2FE08E27C002400F53DECD7
:100D07003EF53C540FF53E853D3F7805E2F5371338
:100D17001313541FF536E537540760020536E4F51B
:100D27003AE53AC395365068E53A2403F538244442
:100D3700F8E4F2F5397B007A007935AF3FAE3E1221
:100D4700159374442538F8C000E2FFAE39E535A89D
:100D570006088002C333D8FC4FD000F2053FE53FB9
:100D67007002053E7E00E53D2537FFEE353CFEC3AC
:100D7700E53F9FE53E9E4005753B0180090539E546
:100D870039C3940840AFE53B64016004053A80919C
:100D97007844E543F2087401F208E536F22403F5D6
:100DA70036FD1212E6AC0674442536F8ECF2053629
:0F0DB70074442536F8EFF2E53604F54902153D90
:101254007802E2FE08E27C002400FFEC3E540FAD6D
:1012640007FC08E2FE08E27A002400FFEA3E4F6031
:10127400057535FF8003E4F535AF05AE04AD3512D1
:1012840015B6E4FFEFC39546500F74002FF8E2FE45
:0F12940074442FF8EEF20F80EB85464902153DAA
:10100D00E4F539F53A7802E2FE08E27C002400FFAF
:10101D00EC3E540FF5378F387805E225E0F535E4D1
:10102D00F536E536C39535502D7B007A007939AF0D
:10103D0038AE3712143EE539FF74472536F8EFF216
:10104D0074482536F8E53AF2053605360538E538A3
:10105D0070D0053780CC7844E543F2087403F2086C
:10106D00E535F22403F5357BFE7A007944FD121245
:10107D00ECAC0674442535F8ECF205357444253591
:0B108D00F8EFF2E53504F54902153DCF
:1012A3007802E2FE08E27C002400FFEC3E540FAB20
:1012B30007FA08E2FE08E22400FFEC3EAD07FCAFAC
:1012C30003AE02121418E4FFEFC39546500F7400E7
:1012D3002FF8E2FE74442FF8EEF20F80EB854649B7
:0312E30002153DB4
:10111A007802E2FE08E27C002400F538EC3EF5375E
:10112A00540FF53985383A7805E2F535E4F536E5B0
:10113A0036C395355031E53625E02407F8E2FEE559
:10114A003625E02408F8E27C002400F53CEC3EF564
:10115A003BAD3CFCAF3AAE391214180536053AE5F8
:10116A003A70CC053980C87844E543F2087410F225
:10117A00E53708F208E538F208E4F208E535F27DC9
:10118A00061212E6AC0608ECF208EFF275490802FC
:02119A00153D01
:100B8700E5456F7003E5446E601C8E448F45E54E66
:100B9700D394004011D54E0EE546D394004007C2CA
:100BA700B7E4F546F54DE546D394045003020CF639
:100BB7007801E224FD601824FE601414601124F704
:100BC700607F147003020C84240F6003020CF6E5A7
:100BD70046C394085003020CF67800E265436003AD
:100BE700020CF1E54D6003020CF17BFE7A007900FF
:100BF7007D061212EC8E318F327806E2FE08E27C17
:100C0700002400FFEC3EFEEF65327003EE653170A5
:100C17006A7801E2B40106120CF7020CF17801E2DE
:100C2700B4030612100D020CF17801E2B4050612A6
:100C37001254020CF17801E2B406031212A3020C5B
:100C4700F17806E2753300F5342409F534E43533D9
:100C5700F533C3E5469534E495335003020CF67833
:100C670000E2B54316E54D70127BFE7A007900E588
:100C77003424FEFD1212EC8E318F32806D7804E23F
:100C8700FE08E27C002400F534EC3EF533E534251C
:100C9700E0F534E53333F53374092534F534E435B9
:100CA70033F533C3E5469534E4953340427800E2A3
:100CB70065437036E54D70327BFE7A007900E53486
:100CC70024FEFD1212EC8E318F32AD3474FE2DF8F6
:100CD700E2FE74FF2DF8E27C002400FFEC3EFEEFFD
:100CE700B53207EEB5310312111AE4F546F54D2278
:10159300C3EF9420EE94005008E54B2FF8E61209B0
:0215A300F22232
:1015B600C3EF9420EE94005006E54B2FF8A60522C3
:10143E00C3EF94B9EE9400501BEF25E0FFEE33FEA0
:10144E00E5482FF582E5473EF583E0FFA3E0CF8F19
:05145E00F0120A9A22C1
:101418008C3D8D3EC3EF94B9EE94005018EF25E053
:10142800FFEE33FEE5482FF582E5473EF583E53DBF
:06143800F0A3E53EF022E6
:100F8D00020026E493A3F8E493A34003F68001F254
:100F9D0008DFF48029E493A3F85407240CC8C33365
:100FAD00C4540F4420C8834004F456800146F6DF34
:100FBD00E4800B01020408102040809015D5E47EDA
:100FCD00019360BCA3FF543F30E509541FFEE49329
:100FDD00A360010ECF54C025E060A840B8E493A3F0
:100FED00FAE493A3F8E493A3C8C582C8CAC583CA1B
:100FFD00F0A3C8C582C8CAC583CADFE9DEE780BED3
:0115E000000A
:100AB90075F008758200EF2FFFEE33FECD33CDCCF4
:100AC90033CCC58233C5829BED9AEC99E582984077
:100AD9000CF582EE9BFEED9AFDEC99FC0FD5F0D654
:100AE900E4CEFBE4CDFAE4CCF9A88222B800C1B97E
:100AF9000059BA002DEC8BF084CFCECDFCE5F0CBBC
:100B0900F97818EF2FFFEE33FEED33FDEC33FCEBF4
:100B190033FB10D703994004EB99FB0FD8E5E4F9AF
:100B2900FA227818EF2FFFEE33FEED33FDEC33FC9C
:100B3900C933C910D7059BE99A4007EC9BFCE99A90
:100B4900F90FD8E0E4C9FAE4CCFB2275F010EF2FD5
:100B5900FFEE33FEED33FDCC33CCC833C810D707D5
:100B69009BEC9AE899400AED9BFDEC9AFCE899F810
:0E0B79000FD5F0DAE4CDFBE4CCFAE4C8F922A3
:00000001FF
