:03000000021813D0
:0C181300787FE4F6D8FD75816702185A52
:10189F00494E4954205355434345535300545950CF
:1018AF00453A005344004D4D43004E414D453A00DB
:1018BF0053495A453A0042504262797465735065F4
:1018CF007253656300425042536563506572436CB7
:1018DF0075737400425042526576644641545365A5
:1018EF006300425042464154506572536563005342
:1018FF0044264D4D43204361726400546573742038
:10190F0050726F6365737300464F524D41543A00E6
:0C191F004641543136004641543332003A
:10074700900225E0F52DA3E0F52E752FFF753018E3
:1007570075319F900217E0FAA3E0FB7D287F0C120A
:100767001B7F900225E0F52DA3E0F52E752FFF7571
:1007770030187531AC900217E0FAA3E0FB7D3C7F9F
:1007870002121B7F900225E0300041F52DA3E0F512
:100797002E752FFF7530187531B290021BE0FAA342
:1007A700E0FB7D3C7F34121B7F90021BE0F52FA3FB
:1007B700E0F530900225E0F531A3E0F5327533011D
:1007C7007B017A007D3C7C007F44803FF52DA3E0D0
:1007D700F52E752FFF7530187531B590021BE0FAAD
:1007E700A3E0FB7D3C7F34121B7F90021BE0F52FBB
:1007F700A3E0F530900225E0F531A3E0F53275333B
:10080700017B017A007D3C7C007F4C7E001214D670
:100817007B007A007908121C7E900225E0F52DA353
:10082700E0F52E752FFF7530187531B9900217E076
:10083700FAA3E0FB7D4C7F02121B7F90021BE0FABC
:10084700A3E0FB900225E0F536A3E0F537850B38EA
:100857007D4C7F3212162690021BE0FAA3E0FB9034
:100867000225E0F536A3E0F537850C387D4C7F3A55
:1008770012162690021BE0FAA3E0FB900225E0F592
:1008870036A3E0F537850D387D4C7F42121626904A
:10089700021BE0FAA3E0FB900225E0F536A3E0F5A2
:1008A70037850E387D4C7F4A12162690021BE0FAD8
:1008B700A3E0FB900225E0F536A3E0F537850F3876
:1008C7007D4C7F521216267B007A007908121C7124
:1008D700E50E54037D0025E025E0FCE50F75F004E7
:1008E700A42DFDE5F03CFCE510C4131354032DFDC6
:1008F700E43CFCE50D540FFF752300752401E52446
:10090700AE23A807088005C333CE33CED8F9F52424
:100917008E23E511540325E0FFE512C41313135486
:10092700012F7521007522012402FFE522AE21A8BF
:1009370007088005C333CE33CED8F9F5228E21EDD3
:100947002401FFE43CAB07FAE4F9F8AE21AF22FC3F
:10095700FD120FB0A804A905AA06AB07AE23AF2462
:10096700E4FCFD120FB078141210DE8F288E278D4D
:10097700268C25900225E0F52DA3E0F52E752FFF97
:100987007530187531BF900217E0FAA3E0FB7D5C64
:100997007F02121B7F900225E0F536A3E0F537E4CE
:1009A7007BE87A03F9F8AF28AE27AD26AC251210FD
:1009B7003BEF4430FF8F3890021BE0FAA3E0FB7D4A
:1009C7005C7F34121626900225E0F536A3E0F53752
:1009D700E47BE87A03F9F8AF28AE27AD26AC2512F9
:1009E700103BAC00AD01AE02AF03E47B64FAF9F84B
:1009F70012103BEF4430FF8F3890021BE0FAA3E060
:100A0700FB7D5C7F3C121626900225E0F536A3E0BD
:100A1700F537E47B64FAF9F8AF28AE27AD26AC25A5
:100A270012103BAC00AD01AE02AF03E47B0AFAF94A
:100A3700F812103BEF4430FF8F3890021BE0FAA307
:100A4700E0FB7D5C7F44121626900225E0F536A375
:100A5700E0F537E47B0AFAF9F8AF28AE27AD26AC04
:100A67002512103BEB4430FF8F3890021BE0FAA3AE
:100A7700E0FB7D5C7F4C12162690021BE0FAA3E098
:100A8700FB900225E0F536A3E0F53775384D7D5C20
:100A97007F5412162690021BE0FAA3E0FB90022572
:100AA700E0F536A3E0F5377538427D5C7F5C0216CA
:010AB7002618
:10178300AB07AA067C277D10120F25EF4430F5081E
:101793007C277D10AF03AE02120F257E037FE8CFB7
:1017A300CDCFCECCCE120F25EF4430F5097C037D8F
:1017B300E8AF03AE02120F257E007F64CFCDCFCEFC
:1017C300CCCE120F25EF4430F50A7C007D64AF03C5
:1017D300AE02120F257E007F0ACFCDCFCECCCE1224
:1017E3000F25EF4430F50BAE02AF037C007D0A12E8
:1017F3000F25ED4430F50CE508B43013750820E5EA
:1018030009B43003750920E50AB43003750A2022B0
:101AEE00AB07AA067C007D64120F25EF4430F50883
:101AFE007C007D64AF03AE02120F257E007F0ACFFD
:101B0E00CDCFCECCCE120F25EF4430F509AE02AFBD
:101B1E00037C007D0A120F25ED4430F50AE508B46A
:0E1B2E00300B750820E509B43003750920223C
:10111000900002E0FEA3E0FF121AEE900225E0F537
:101120002DA3E0F52E752FFF7530187531C590028F
:1011300017E0FAA3E0FB7D187F02121B7F90021BD1
:10114000E0FAA3E0FB900225E0F536A3E0F5378551
:1011500008387D287F0212162690021BE0FAA3E0D1
:10116000FB900225E0F536A3E0F5378509387D28A8
:101170007F0A12162690021BE0FAA3E0FB900225DC
:10118000E0F536A3E0F537850A387D287F12121680
:1011900026AF5B7E00121AEE900225E0F52DA3E04B
:1011A000F52E752FFF7530187531D4900217E0FABF
:1011B000A3E0FB7D387F02121B7F90021BE0FAA3A5
:1011C000E0FB900225E0F536A3E0F5378508387D91
:1011D000487F0212162690021BE0FAA3E0FB900261
:1011E00025E0F536A3E0F5378509387D487F0A12FA
:1011F000162690021BE0FAA3E0FB900225E0F536EC
:10120000A3E0F537850A387D487F12121626900034
:1012100007E0FEA3E0FF121AEE900225E0F52DA3F1
:10122000E0F52E752FFF7530187531E3900217E049
:10123000FAA3E0FB7D587F02121B7F90021BE0FAAD
:10124000A3E0FB900225E0F536A3E0F537850838EA
:101250007D687F0212162690021BE0FAA3E0FB9045
:101260000225E0F536A3E0F5378509387D687F0A69
:1012700012162690021BE0FAA3E0FB900225E0F58F
:1012800036A3E0F537850A387D687F12121626905E
:101290000004E0FEA3E0FF121783900225E0F52D85
:1012A000A3E0F52E752FFF7530187531F1900217F8
:1012B000E0FAA3E0FB7D787F02121B7F90021BE027
:1012C000FAA3E0FB900225E0F536A3E0F5378508A8
:1012D000387D887F0212162690021BE0FAA3E0FBFD
:1012E000900225E0F536A3E0F5378509387D887F43
:1012F0000A12162690021BE0FAA3E0FB900225E0FA
:10130000F536A3E0F537850A387D887F1212162658
:1013100090021BE0FAA3E0FB900225E0F536A3E083
:10132000F537850B387D887F1A12162690021BE050
:10133000FAA3E0FB900225E0F536A3E0F537850C33
:08134000387D887F2202162689
:1013480075A0FF7580FF1216DB7F0712000390025D
:1013580025E0F52DA3E0F52E752FFF7530187531B2
:10136800FE90021FE0FAA3E0FB7D047F10121B7FB2
:10137800900225E0F52DA3E0F52E752FFF753019A5
:1013880075310A90021FE0FAA3E0FB7D147F0C126E
:101398001B7F121A8C120AB8200103120747900209
:1013A8001BE0F52FA3E0F530900225E0F531A3E02E
:1013B800F5327533027B017A007D787C007F0E7EE2
:1013C800001214D690021BE0F52FA3E0F53090022E
:1013D80025E0F531A3E0F5327533037B017A007D12
:1013E800787C007F267E001214D690021BE0F52F31
:1013F800A3E0F530900225E0F531A3E0F53275332E
:10140800047B017A007D787C007F3E7E001214D632
:1014180090021BE0F52FA3E0F530900225E0F531AE
:10142800A3E0F5327533057B017A007D787C007F77
:10143800567E001214D67FB87E0B121C367F071218
:101448000003E55864087037900225E0F52DA3E005
:10145800F52E752FFF753019753117900217E0FAC0
:10146800A3E0FB7D047F02121B7F900225E0F52D8F
:10147800A3E0F52E752FFF75301975311F803BE5F8
:101488005864077044900225E0F52DA3E0F52E7509
:101498002FFF753019753117900217E0FAA3E0FB9A
:1014A8007D047F02121B7F900225E0F52DA3E0F555
:1014B8002E752FFF75301975312590021BE0FAA3A0
:0E14C800E0FB7D047F42121B7F12111080FE9C
:100AB8007B017A0079177F007E007D007C00121987
:100AC800A8900017E064EB6066E064E9606190025A
:100AD80015E0B45506A3E064AA60037F01229001E3
:100AE800DEE0FFE4FCFDFE78081210F1A804A90579
:100AF800AA06AB079001DDE0FFEB4FFFEAFEE9FD38
:100B0800E8FC900013121104900013E0FCA3E0FD30
:100B1800A3E0FEA3E0FF7B017A0079171219A890E1
:100B28000017E064EB6008E064E960037F0222904C
:100B38000023E0FE900022E0FDEDFF900002EEF0C1
:100B4800A3EFF0900024E0F55B900026E0FE900013
:100B580025E0FDEDFF900007EEF0A3EFF0900027F1
:100B6800E0900006F090002BE0FE90002AE0FDEDFA
:100B7800FF90000DEEF0A3EFF090002EE0FE900045
:100B88002DE0FDEDFF900004EEF0A3EFF0900034AF
:100B9800E0FE900033E0FDEDFF900000EEF0A3EFE3
:100BA800F0900038E0FFE4FCFDFE78081210F1A890
:100BB80004A905AA06AB07900037E0FFEB4FFFEA50
:100BC800FEE9FDE8FCC004C005C006C00790003976
:100BD800E0FFE4FCFDFE78101210F1D003D002D043
:100BE80001D000EF4BFFEE4AFEED49FDEC48FCC09A
:100BF80004C005C006C007A3E0FFE4FCFDFE7818AA
:100C08001210F1D003D002D001D000EF4BFFEE4A12
:100C1800FEED49FDEC48FC900009121104E4FFFECA
:100C2800FDFC900009E0F8A3E0F9A3E0FAA3E0FBDB
:100C3800C31210CD701B90000DE0FCA3E0FD4C70BA
:100C4800037F3022AF05AE04E4FCFD9000091211C9
:100C580004900007E0FEA3E0FF900001E02FF56597
:100C6800900000E03EF564900006E0FF7E009000F2
:100C780004E0FCA3E0FD120F13E5652FF55AE564C7
:100C88003EF559E55A2420F567E43559F566AF670E
:100C9800AB07FA900009E0FCA3E0FDA3E0FEA3E0A7
:100CA800C39BFBEE9AFAED9400F9EC9400F89000DF
:100CB80000E0FEA3E0FFE4FCFDEB2FFFEA3EFEEDC3
:100CC80039FDEC38FCC007AF5BAB07E4FAF9F8D0A4
:100CD8000712103B90000F121104E47FF57E0FFD00
:100CE800FC90000FE0F8A3E0F9A3E0FAA3E0FBC34F
:100CF8001210CD50037F3122E47FF57EFFFDFC907A
:100D0800000FE0F8A3E0F9A3E0FAA3E0FBD3121088
:100D1800CD50067558087F0822E47FF57EFFFDFC5C
:100D280090000FE0F8A3E0F9A3E0FAA3E0FBD312E8
:100D380010CD5003020DF175580790003CE0FE906D
:100D4800003BE0FDEDFF900004EEF0FCA3EFF0A304
:100D5800E0FF7E00120F13E5652FF55AE5643EF5B6
:100D6800597E00E55A255BF567EE3559F566900022
:100D780044E0FFE4FCFD78081210F1A804A905AAD4
:100D880006AB07900043E0FFEB4FFFEAFEE9FDE802
:100D9800FCC004C005C006C007900045E0FFE4FCA5
:100DA800FDFE78101210F1D003D002D001D000EF70
:100DB8004BFFEE4AFEED49FDEC48FCC004C005C0FF
:100DC80006C007A3E0FFE4FCFDFE78181210F1D07E
:100DD80003D002D001D000EF4BF55FEE4AF55EED8F
:0A0DE80049F55DEC48F55C7F072239
:10003E0000000000000000000000000000000000B2
:10004E000000183C3C3C181818001818000000005E
:10005E000063636322000000000000000000000047
:10006E0000000036367F3636367F3636000000000A
:10007E000C0C3E6361603E030343633E0C0C0000B8
:10008E0000000000006163060C18336300000000DE
:10009E000000001C36361C3B6E66663B00000000FE
:1000AE000030303060000000000000000000000052
:1000BE0000000C18183030303018180C00000000FA
:1000CE000000180C0C060606060C0C1800000000AA
:1000DE000000000042663CFF3C664200000000004B
:1000EE0000000000181818FF181818000000000073
:1000FE00000000000000000000001818183000007A
:10010E0000000000000000FF0000000000000000E2
:10011E0000000000000000000000181800000000A1
:10012E0000000103070E1C3870E0C08000000000C4
:10013E0000003E6363636B6B6363633E000000000D
:10014E0000000C1C3C0C0C0C0C0C0C3F00000000B6
:10015E0000003E6303060C183061637F0000000050
:10016E0000003E6303031E030303633E0000000012
:10017E000000060E1E3666667F06060F00000000A3
:10018E0000007F6060607E030363733E000000002A
:10019E0000001C3060607E636363633E00000000FD
:1001AE0000007F630306060C0C18181800000000F0
:1001BE0000003E6363633E636363633E00000000C2
:1001CE0000003E636363633F0303063C00000000D0
:1001DE0000000000001818000000181800000000B1
:1001EE000000000000181800000018181830000059
:1001FE00000000060C18306030180C0600000000DD
:10020E000000000000007E00007E000000000000E4
:10021E000000006030180C060C1830600000000062
:10022E0000003E6363060C0C0C000C0C000000007A
:10023E0000003E63636F6B6B6E60603E00000000FB
:10024E000000081C366363637F6363630000000075
:10025E0000007E3333333E333333337E00000000F1
:10026E0000001E33616060606061331E000000009C
:10027E0000007C36333333333333367C00000000DA
:10028E0000007F3331343C343031337F00000000C6
:10029E0000007F3331343C343030307800000000C1
:1002AE0000001E336160606F6363371D0000000045
:1002BE000000636363637F63636363630000000036
:1002CE0000003C18181818181818183C00000000E8
:1002DE0000000F06060606060666663C00000000D5
:1002EE000000733336363C3636333373000000006D
:1002FE0000007830303030303031337F0000000075
:10030E00000063777F6B63636363636300000000C9
:10031E0000006363737B7F6F67636363000000009D
:10032E0000001C36636363636363361C00000000C9
:10033E0000007E3333333E30303030780000000022
:10034E0000003E6363636363636B6F3E06070000EA
:10035E0000007E3333333E363633337300000000F5
:10036E0000003E6363301C060363633E0000000022
:10037E000000FFDB991818181818183C0000000030
:10038E0000006363636363636363633E00000000A6
:10039E00000063636363636363361C080000000040
:1003AE00000063636363636B6B7F3636000000008F
:1003BE000000C3C3663C18183C66C3C300000000AF
:1003CE000000C3C3C3663C181818183C0000000098
:1003DE0000007F6343060C183061637F000000004D
:1003EE0000003C30303030303030303C0000000007
:1003FE00000080C0E070381C0E07030100000000F2
:10040E0000003C0C0C0C0C0C0C0C0C3C0000000006
:10041E00081C366300000000000000000000000011
:10042E00000000000000000000000000FF000000BF
:10043E0018180C0000000000000000000000000072
:10044E0000000000003C46063E66663B00000000D1
:10045E0000007030303C36333333336E0000000012
:10046E0000000000003E63606060633E000000001C
:10047E0000000E06061E36666666663B000000002D
:10048E0000000000003E63637E60633E00000000DB
:10049E0000001C3632307C303030307800000000E6
:1004AE0000000000003B666666663E06663C000085
:1004BE000000703030363B333333337300000000AE
:1004CE0000000C0C001C0C0C0C0C0C1E0000000090
:1004DE0000000606000E060606060666663C0000CE
:1004EE0000007030303333363C363373000000007A
:1004FE0000001C0C0C0C0C0C0C0C0C1E0000000054
:10050E0000000000006E7F6B6B6B6B6B00000000D9
:10051E0000000000006E333333333333000000002D
:10052E0000000000003E63636363633E0000000052
:10053E0000000000006E333333333E30307800005D
:10054E0000000000003B666666663E06060F000071
:10055E0000000000006E3B333030307800000000A9
:10056E0000000000003E63380E03633E00000000F2
:10057E0000000818187E181818181B0E000000002E
:10058E0000000000006666666666663B00000000BE
:10059E000000000000636336361C1C0800000000DB
:1005AE0000000000006363636B6B7F360000000089
:1005BE00000000000063361C1C1C366300000000A7
:1005CE00000000000063636363633F03063C0000AA
:1005DE0000000000007F660C1830637F00000000F2
:1005EE0000000E18181870181818180E00000000C9
:1005FE0000001818181818001818181818000000FD
:10060E000000701818180E18181818700000000046
:10061E0000003B6E00000000000000000000000023
:10062E000070D8D87000000000000000000000002C
:10063E00C0800080830300C70100C610FCFF3F0886
:10064E00E70418660C30660C606606E0660340E64A
:10065E0031FFFF7F000000400002C0FF0FC0000707
:10066E00C00003C0FF07C0FF07C00007C00007C0DF
:10067E00FF07C0000740000080008000803F800020
:10068E0080008000FE7F800080008002800C801839
:10069E008030801080008000400080008000FF7F4E
:1006AE0010041004100420022002400180004001BA
:1006BE00200618780710000008025802C8024C02E3
:1006CE00C43F260225021402F47F0402040204022F
:1006DE000402040204020402003EFC014004200451
:1006EE001002F801C0043008FC1F08312005100963
:1006FE00081104214221800008020804C47F04026C
:10070E0022021F119020C87F04293E09000900090A
:10071E00B8488748407020002801FF0728012801AB
:10072E00FF072104FC0124012401A4012000000084
:09073E00FF0726FF0686FF063EB8
:101C0200500217F80007E0001FFFE0000007FFF88E
:031C12001FFFFFB2
:101C3600EF1FAA0670011E4A600BE4FDEDC394E493
:051C460050EE0D80F7D7
:011C4B002276
:101C5F00AB05C2A6EF24FF92A5C2B38B80D2B3D23D
:021C6F00A622AB
:101C4C00C2A6D2A5C2B38F80D2B3C2B38E80D2B398
:031C5C00D2A622EB
:031C1E00E4FDFCE6
:101C21008D828C83AD07AC06E4FF121C5FAD82ACE4
:051C3100830F021C5F9F
:0C1A24008E4A8F4B8C4C8D4D8A4E8B4FA0
:101A3000E54D454AF554E54BF555E551454EF55212
:101A4000E54FF553454AF556E54BF557FDAC4A7F52
:101A5000097E00121C21AD4FAC4E7F10121C21AD2F
:101A60004DAC4C7F11121C21AD51AC507F12121C99
:101A700021AD4BAC4A7F18121C21AD4FAC4E7F19E3
:0C1A8000121C217D227C00E4FF021C5F90
:1016DB007D027C007F017E00121C217D127C007F2D
:1016EB0002121C217F03121C1E7D107C007F041232
:1016FB001C2175500075519FE4FBFA7D7FFCFF1296
:10170B001A247D007C5074FFFFFE121C4CED1D70E3
:10171B00011CED4C70F07D087C007F057E00121CD7
:10172B00217D7F7C007F07121C217D177C007F08A9
:10173B00121C217F09121C1EE4FDFC7F10121C21C0
:10174B007D837C007F11121C217D9F7C007F1212F8
:10175B001C21E4FDFC7F17121C21E4FDFC7F1812F9
:10176B001C21E4FDFC7F19121C217DC57C007F062A
:08177B00121C217F0A021C363A
:02000300A9074B
:1000050075500075519FE4FBFA7D7FFCFFFE121AC7
:10001500247D007C50E925E02417F582E43402F5BF
:1000250083E0FEA3E0FF121C4CED1D70011CED4C9E
:0200350070E376
:0100370022A6
:081626008D338A348B35A907CE
:10162E00753908753A10C374809539FFE9D39F4018
:10163E00030216DAC374A0953AFFE533D39F400335
:10164E000216DAE97A00FF7E00C0072539FFEA3379
:10165E00CF24FFFDEF34FFFCE533FB253AFFE433E7
:10166E00CF24FFF551EF34FFF550D007121A247432
:10167E00E02538F538E4FDEDC3953A504FAF38EF1D
:10168E003395E0FEEFC4F8540FC868FFEEC454F073
:10169E0048FE743E2FF58274003EF583E5822DF5EB
:1016AE0082E43583F583E493FCE4FBEBC395395078
:1016BE0018EC30E706AF35AE348004AF37AE3612D5
:0C16CE001C4CEC25E0FC0B80E20D80AB16
:0116DA0022ED
:101B7F008F298D2A8A2B8B2CAB2FAA30A931120ECD
:101B8F00E86026852D36852E37F538AB2CAA2BAD80
:101B9F002AAF2912162674082529F5297401253133
:0A1BAF00F531E43530F53080CF2227
:0C14D6008E298F2A8C2B8D2C8A2D8B2EBA
:1014E200E4F534F53578417C00FD7BFF7A07793EDF
:1014F200FE7F09120EC2E52E75F003A42441F88680
:101502000308E6FA08E6F9E52E452D7011F538755F
:10151200390BF53A753B0BF53C753D188030E52EDD
:101522006401452D7011F53875390FF53A753B0F89
:10153200F53C753D208017E52E6402452D700FF5B0
:1015420038753917F53A753B17F53C753D48AF3399
:10155200EF3395E0FEEF24FFFFEE34FFFEAC3CAD2F
:101562003D120F13E92FF9EA3E8B3EF53F8940E524
:101572002A253BFDE529353AFCE52C2539F551E5CF
:101582002B3538F550AB2CAA2BAF2AAE29121A24D0
:10159200E4F536F537C3E537953DE536953C40032E
:1015A200021625AB3E0540E540AA3F7002053F14F6
:1015B200F9120EE8FB7A00E52E452D701AAE36AF11
:1015C20037FC7D02120F7AED4C7004F534800B75F6
:1015D20034007535048006753400753508E4FDFC69
:1015E200C3ED9535E5346480F8EC6480985029AFFA
:1015F20005EBAE02A807088006CEA2E713CE13D8E9
:10160200F830E006AF30AE2F8004AF32AE31121C9C
:101612004C0DBD00010C80C80537E5377002053658
:0316220002159717
:0116250022A2
:061C9D005100000000FFF1
:081C15000618400000000095D4
:0B1C8B00EF1FAC0670011E4C70F6222B
:051CA30000000000221A
:071C9600D291D290D29322FB
:101BB900E4FEEF30E704D2928002C292C291300172
:101BC90003121CA3D291300103121CA3EF25E0FFDD
:041BD9000EBE08DE56
:011BDD0022E5
:101BDE00E4FFD290FEC291300103121CA3D29130C9
:101BEE000103121CA3EF25E0FFA290E4334FFF0E7A
:031BFE00BE08E23C
:011C010022C0
:061B3C007B007A0079181D
:061B42008B388A39893A54
:101B4800D2937FFF121BB9C293E4FDAB38053AE587
:101B58003AAA397002053914F9120EE8FF121BB9B6
:101B68000DBD06E7E4FD121BDE121BDE0DBFFF06EE
:061B7800EDC3946440F38C
:011B7E002244
:101A8C00121C967FC87E00121C8BD201E4FC7FFFD7
:101A9C00121BB90CBC0FF7E4FC121B3C0CECC394EE
:101AAC00C840037F0122BF01F0E4FC751877121BBC
:101ABC003CBF010D751869121B3CEF7012D20080EF
:101ACC000E751841751DFF121B3CEF7002C2000C05
:101ADC00ECC394C840037F0222EF70CFC201D293B3
:011AEC00FFFA
:011AED0022D6
:10192B00751DFF8B318A3289337534007535107B09
:05193B00007A0079189C
:061940008B2E8A2F893076
:10194600E4F536F537AB2EAA2FA930121B42053720
:10195600E537700205366464453670037F0422EF6E
:1019660070E3121BDEBFFEFAE4F536F537C3E53742
:101976009535E5369534501F121BDEAB310533E540
:1019860033AA327002053214F9EF120F010537E55A
:101996003770DA053680D6121BDE121BDED2937F35
:0119A6000040
:0119A700221D
:061C71008B298A2A892B51
:061C770075184912192B3B
:011C7D002244
:061C7E008B298A2A892B44
:061C840075184A12192B2D
:011C8A002237
:0E19A8008F248E238D228C218B258A26892761
:1019B60078287C007D007BFF7A1C799D7E007F065F
:1019C600120EC2AF24AE23AD22AC2178091210F15B
:1019D6008F248E238D228C21E4FFFEFDE5217818CD
:1019E6001210DE8F29E4FFFEE522FDE4FC781012DA
:1019F60010DE8F2AE4FFE523FEE4FDFC78081210D2
:101A0600DE8F2B8525318526328527337534027581
:0D1A160035007B007A0079281219407F000E
:011A230022A0
:10181F00021348E493A3F8E493A34003F68001F284
:10182F0008DFF48029E493A3F85407240CC8C333CA
:10183F00C4540F4420C8834004F456800146F6DF99
:10184F00E4800B0102040810204080901C02E47E0B
:10185F00019360BCA3FF543F30E509541FFEE4938E
:10186F00A360010ECF54C025E060A840B8E493A355
:10187F00FAE493A3F8E493A3C8C582C8CAC583CA80
:10188F00F0A3C8C582C8CAC583CADFE9DEE780BE38
:011C1D0000C6
:100DF200E709F608DFFA8046E709F208DFFA803EE3
:100E020088828C83E709F0A3DFFA8032E309F608CF
:100E1200DFFA8078E309F208DFFA807088828C8337
:100E2200E309F0A3DFFA806489828A83E0A3F608EB
:100E3200DFFA805889828A83E0A3F208DFFA804CC5
:100E420080D280FA80C680D4806980F2803380109C
:100E520080A680EA809A80A880DA80E280CA803305
:100E620089828A83ECFAE493A3C8C582C8CCC5837D
:100E7200CCF0A3C8C582C8CCC583CCDFE9DEE7804D
:100E82000D89828A83E493A3F608DFF9ECFAA9F0CC
:100E9200EDFB2289828A83ECFAE0A3C8C582C8CC22
:100EA200C583CCF0A3C8C582C8CCC583CCDFEADE3B
:100EB200E880DB89828A83E493A3F208DFF980CC9D
:100EC20088F0EF60010E4E60C388F0ED2402B40496
:100ED2000050B9F582EB2402B4040050AF2323453D
:060EE2008223900E427312
:100EE800BB010689828A83E0225002E722BBFE0208
:090EF800E32289828A83E493223B
:100F0100BB010689828A83F0225002F722BBFE01CF
:020F1100F322C9
:100F1300EF8DF0A4A8F0CF8CF0A428CE8DF0A42EF2
:020F2300FE22AC
:100F2500BC000BBE0029EF8DF084FFADF022E4CCB0
:100F3500F875F008EF2FFFEE33FEEC33FCEE9DEC79
:100F4500984005FCEE9DFE0FD5F0E9E4CEFD22EDBF
:100F5500F8F5F0EE8420D21CFEADF075F008EF2F09
:100F6500FFED33FD4007985006D5F0F222C398FDFA
:050F75000FD5F0EA2297
:100F7A00C2D5EC30E709B2D5E4C39DFDE49CFCEE92
:100F8A0030E715B2D5E4C39FFFE49EFE120F25C3D6
:100F9A00E49DFDE49CFC8003120F2530D507C3E4D1
:060FAA009FFFE49EFE2201
:100FB000E88FF0A4CC8BF0A42CFCE98EF0A42CFCE0
:100FC0008AF0EDA42CFCEA8EF0A4CDA8F08BF0A45E
:100FD0002DCC3825F0FDE98FF0A42CCD35F0FCEBBD
:100FE0008EF0A4FEA9F0EB8FF0A4CFC5F02ECD3982
:0F0FF000FEE43CFCEAA42DCE35F0FDE43CFC22EF
:100FFF0075F008758200EF2FFFEE33FECD33CDCCA9
:10100F0033CCC58233C5829BED9AEC99E58298402B
:10101F000CF582EE9BFEED9AFDEC99FC0FD5F0D608
:10102F00E4CEFBE4CDFAE4CCF9A88222B800C1B932
:10103F000059BA002DEC8BF084CFCECDFCE5F0CB70
:10104F00F97818EF2FFFEE33FEED33FDEC33FCEBA9
:10105F0033FB10D703994004EB99FB0FD8E5E4F964
:10106F00FA227818EF2FFFEE33FEED33FDEC33FC51
:10107F00C933C910D7059BE99A4007EC9BFCE99A45
:10108F00F90FD8E0E4C9FAE4CCFB2275F010EF2F8A
:10109F00FFEE33FEED33FDCC33CCC833C810D7078A
:1010AF009BEC9AE899400AED9BFDEC9AFCE899F8C5
:0E10BF000FD5F0DAE4CDFBE4CCFAE4C8F92258
:1010CD00EB9FF5F0EA9E42F0E99D42F0E89C45F079
:0110DD0022F0
:1010DE00E8600FECC313FCED13FDEE13FEEF13FFF0
:0310EE00D8F12214
:1010F100E8600FEFC333FFEE33FEED33FDEC33FC5D
:03110100D8F12200
:0C110400ECF0A3EDF0A3EEF0A3EFF0225E
:00000001FF
